{
	"contracts/twitter.sol": {
		"Twitter": {
			"abi": [
				{
					"inputs": [
						{
							"internalType": "string",
							"name": "_tweet",
							"type": "string"
						}
					],
					"name": "createTweet",
					"outputs": [],
					"stateMutability": "nonpayable",
					"type": "function"
				},
				{
					"inputs": [
						{
							"internalType": "address",
							"name": "_user",
							"type": "address"
						},
						{
							"internalType": "uint256",
							"name": "i",
							"type": "uint256"
						}
					],
					"name": "getTweets",
					"outputs": [
						{
							"components": [
								{
									"internalType": "address",
									"name": "author",
									"type": "address"
								},
								{
									"internalType": "string",
									"name": "message",
									"type": "string"
								},
								{
									"internalType": "uint256",
									"name": "timestamp",
									"type": "uint256"
								},
								{
									"internalType": "uint256",
									"name": "likes",
									"type": "uint256"
								}
							],
							"internalType": "struct Twitter.Tweet",
							"name": "",
							"type": "tuple"
						}
					],
					"stateMutability": "view",
					"type": "function"
				},
				{
					"inputs": [
						{
							"internalType": "address",
							"name": "",
							"type": "address"
						},
						{
							"internalType": "uint256",
							"name": "",
							"type": "uint256"
						}
					],
					"name": "tweets",
					"outputs": [
						{
							"internalType": "address",
							"name": "author",
							"type": "address"
						},
						{
							"internalType": "string",
							"name": "message",
							"type": "string"
						},
						{
							"internalType": "uint256",
							"name": "timestamp",
							"type": "uint256"
						},
						{
							"internalType": "uint256",
							"name": "likes",
							"type": "uint256"
						}
					],
					"stateMutability": "view",
					"type": "function"
				}
			],
			"devdoc": {
				"kind": "dev",
				"methods": {},
				"version": 1
			},
			"evm": {
				"assembly": "    /* \"contracts/twitter.sol\":61:737  contract Twitter{... */\n  mstore(0x40, 0x80)\n  callvalue\n  dup1\n  iszero\n  tag_1\n  jumpi\n  revert(0x00, 0x00)\ntag_1:\n  pop\n  dataSize(sub_0)\n  dup1\n  dataOffset(sub_0)\n  0x00\n  codecopy\n  0x00\n  return\nstop\n\nsub_0: assembly {\n        /* \"contracts/twitter.sol\":61:737  contract Twitter{... */\n      mstore(0x40, 0x80)\n      callvalue\n      dup1\n      iszero\n      tag_1\n      jumpi\n      revert(0x00, 0x00)\n    tag_1:\n      pop\n      jumpi(tag_2, lt(calldatasize, 0x04))\n      shr(0xe0, calldataload(0x00))\n      dup1\n      0x05a1b4a9\n      eq\n      tag_3\n      jumpi\n      dup1\n      0x2cf02026\n      eq\n      tag_4\n      jumpi\n      dup1\n      0x7c9cd2bc\n      eq\n      tag_5\n      jumpi\n    tag_2:\n      revert(0x00, 0x00)\n        /* \"contracts/twitter.sol\":215:256  mapping(address => Tweet[]) public tweets */\n    tag_3:\n      tag_6\n      0x04\n      dup1\n      calldatasize\n      sub\n      dup2\n      add\n      swap1\n      tag_7\n      swap2\n      swap1\n      tag_8\n      jump\t// in\n    tag_7:\n      tag_9\n      jump\t// in\n    tag_6:\n      mload(0x40)\n      tag_10\n      swap5\n      swap4\n      swap3\n      swap2\n      swap1\n      tag_11\n      jump\t// in\n    tag_10:\n      mload(0x40)\n      dup1\n      swap2\n      sub\n      swap1\n      return\n        /* \"contracts/twitter.sol\":617:734  function getTweets(address _user, uint i) view public returns(Tweet memory){... */\n    tag_4:\n      tag_12\n      0x04\n      dup1\n      calldatasize\n      sub\n      dup2\n      add\n      swap1\n      tag_13\n      swap2\n      swap1\n      tag_8\n      jump\t// in\n    tag_13:\n      tag_14\n      jump\t// in\n    tag_12:\n      mload(0x40)\n      tag_15\n      swap2\n      swap1\n      tag_16\n      jump\t// in\n    tag_15:\n      mload(0x40)\n      dup1\n      swap2\n      sub\n      swap1\n      return\n        /* \"contracts/twitter.sol\":265:609  function createTweet(string memory _tweet) public{... */\n    tag_5:\n      tag_17\n      0x04\n      dup1\n      calldatasize\n      sub\n      dup2\n      add\n      swap1\n      tag_18\n      swap2\n      swap1\n      tag_19\n      jump\t// in\n    tag_18:\n      tag_20\n      jump\t// in\n    tag_17:\n      stop\n        /* \"contracts/twitter.sol\":215:256  mapping(address => Tweet[]) public tweets */\n    tag_9:\n      mstore(0x20, 0x00)\n      dup2\n      0x00\n      mstore\n      keccak256(0x00, 0x40)\n      dup2\n      dup2\n      sload\n      dup2\n      lt\n      tag_21\n      jumpi\n      0x00\n      dup1\n      revert\n    tag_21:\n      swap1\n      0x00\n      mstore\n      keccak256(0x00, 0x20)\n      swap1\n      0x04\n      mul\n      add\n      0x00\n      swap2\n      pop\n      swap2\n      pop\n      pop\n      dup1\n      0x00\n      add\n      0x00\n      swap1\n      sload\n      swap1\n      0x0100\n      exp\n      swap1\n      div\n      0xffffffffffffffffffffffffffffffffffffffff\n      and\n      swap1\n      dup1\n      0x01\n      add\n      dup1\n      sload\n      tag_23\n      swap1\n      tag_24\n      jump\t// in\n    tag_23:\n      dup1\n      0x1f\n      add\n      0x20\n      dup1\n      swap2\n      div\n      mul\n      0x20\n      add\n      mload(0x40)\n      swap1\n      dup2\n      add\n      0x40\n      mstore\n      dup1\n      swap3\n      swap2\n      swap1\n      dup2\n      dup2\n      mstore\n      0x20\n      add\n      dup3\n      dup1\n      sload\n      tag_25\n      swap1\n      tag_24\n      jump\t// in\n    tag_25:\n      dup1\n      iszero\n      tag_26\n      jumpi\n      dup1\n      0x1f\n      lt\n      tag_27\n      jumpi\n      0x0100\n      dup1\n      dup4\n      sload\n      div\n      mul\n      dup4\n      mstore\n      swap2\n      0x20\n      add\n      swap2\n      jump(tag_26)\n    tag_27:\n      dup3\n      add\n      swap2\n      swap1\n      0x00\n      mstore\n      keccak256(0x00, 0x20)\n      swap1\n    tag_28:\n      dup2\n      sload\n      dup2\n      mstore\n      swap1\n      0x01\n      add\n      swap1\n      0x20\n      add\n      dup1\n      dup4\n      gt\n      tag_28\n      jumpi\n      dup3\n      swap1\n      sub\n      0x1f\n      and\n      dup3\n      add\n      swap2\n    tag_26:\n      pop\n      pop\n      pop\n      pop\n      pop\n      swap1\n      dup1\n      0x02\n      add\n      sload\n      swap1\n      dup1\n      0x03\n      add\n      sload\n      swap1\n      pop\n      dup5\n      jump\t// out\n        /* \"contracts/twitter.sol\":617:734  function getTweets(address _user, uint i) view public returns(Tweet memory){... */\n    tag_14:\n        /* \"contracts/twitter.sol\":679:691  Tweet memory */\n      tag_29\n      tag_30\n      jump\t// in\n    tag_29:\n        /* \"contracts/twitter.sol\":710:716  tweets */\n      0x00\n        /* \"contracts/twitter.sol\":710:723  tweets[_user] */\n      0x00\n        /* \"contracts/twitter.sol\":717:722  _user */\n      dup5\n        /* \"contracts/twitter.sol\":710:723  tweets[_user] */\n      0xffffffffffffffffffffffffffffffffffffffff\n      and\n      0xffffffffffffffffffffffffffffffffffffffff\n      and\n      dup2\n      mstore\n      0x20\n      add\n      swap1\n      dup2\n      mstore\n      0x20\n      add\n      0x00\n      keccak256\n        /* \"contracts/twitter.sol\":724:725  i */\n      dup3\n        /* \"contracts/twitter.sol\":710:726  tweets[_user][i] */\n      dup2\n      sload\n      dup2\n      lt\n      tag_32\n      jumpi\n      tag_33\n      tag_34\n      jump\t// in\n    tag_33:\n    tag_32:\n      swap1\n      0x00\n      mstore\n      keccak256(0x00, 0x20)\n      swap1\n      0x04\n      mul\n      add\n        /* \"contracts/twitter.sol\":703:726  return tweets[_user][i] */\n      mload(0x40)\n      dup1\n      0x80\n      add\n      0x40\n      mstore\n      swap1\n      dup2\n      0x00\n      dup3\n      add\n      0x00\n      swap1\n      sload\n      swap1\n      0x0100\n      exp\n      swap1\n      div\n      0xffffffffffffffffffffffffffffffffffffffff\n      and\n      0xffffffffffffffffffffffffffffffffffffffff\n      and\n      0xffffffffffffffffffffffffffffffffffffffff\n      and\n      dup2\n      mstore\n      0x20\n      add\n      0x01\n      dup3\n      add\n      dup1\n      sload\n      tag_36\n      swap1\n      tag_24\n      jump\t// in\n    tag_36:\n      dup1\n      0x1f\n      add\n      0x20\n      dup1\n      swap2\n      div\n      mul\n      0x20\n      add\n      mload(0x40)\n      swap1\n      dup2\n      add\n      0x40\n      mstore\n      dup1\n      swap3\n      swap2\n      swap1\n      dup2\n      dup2\n      mstore\n      0x20\n      add\n      dup3\n      dup1\n      sload\n      tag_37\n      swap1\n      tag_24\n      jump\t// in\n    tag_37:\n      dup1\n      iszero\n      tag_38\n      jumpi\n      dup1\n      0x1f\n      lt\n      tag_39\n      jumpi\n      0x0100\n      dup1\n      dup4\n      sload\n      div\n      mul\n      dup4\n      mstore\n      swap2\n      0x20\n      add\n      swap2\n      jump(tag_38)\n    tag_39:\n      dup3\n      add\n      swap2\n      swap1\n      0x00\n      mstore\n      keccak256(0x00, 0x20)\n      swap1\n    tag_40:\n      dup2\n      sload\n      dup2\n      mstore\n      swap1\n      0x01\n      add\n      swap1\n      0x20\n      add\n      dup1\n      dup4\n      gt\n      tag_40\n      jumpi\n      dup3\n      swap1\n      sub\n      0x1f\n      and\n      dup3\n      add\n      swap2\n    tag_38:\n      pop\n      pop\n      pop\n      pop\n      pop\n      dup2\n      mstore\n      0x20\n      add\n      0x02\n      dup3\n      add\n      sload\n      dup2\n      mstore\n      0x20\n      add\n      0x03\n      dup3\n      add\n      sload\n      dup2\n      mstore\n      pop\n      pop\n      swap1\n      pop\n        /* \"contracts/twitter.sol\":617:734  function getTweets(address _user, uint i) view public returns(Tweet memory){... */\n      swap3\n      swap2\n      pop\n      pop\n      jump\t// out\n        /* \"contracts/twitter.sol\":265:609  function createTweet(string memory _tweet) public{... */\n    tag_20:\n        /* \"contracts/twitter.sol\":357:360  280 */\n      0x0118\n        /* \"contracts/twitter.sol\":339:345  _tweet */\n      dup2\n        /* \"contracts/twitter.sol\":333:353  bytes(_tweet).length */\n      mload\n        /* \"contracts/twitter.sol\":333:360  bytes(_tweet).length <= 280 */\n      gt\n      iszero\n        /* \"contracts/twitter.sol\":325:376  require(bytes(_tweet).length <= 280, \"Hit the cap\") */\n      tag_42\n      jumpi\n      mload(0x40)\n      0x08c379a000000000000000000000000000000000000000000000000000000000\n      dup2\n      mstore\n      0x04\n      add\n      tag_43\n      swap1\n      tag_44\n      jump\t// in\n    tag_43:\n      mload(0x40)\n      dup1\n      swap2\n      sub\n      swap1\n      revert\n    tag_42:\n        /* \"contracts/twitter.sol\":387:408  Tweet memory newTweet */\n      0x00\n        /* \"contracts/twitter.sol\":411:557  Tweet({... */\n      mload(0x40)\n      dup1\n      0x80\n      add\n      0x40\n      mstore\n      dup1\n        /* \"contracts/twitter.sol\":441:451  msg.sender */\n      caller\n        /* \"contracts/twitter.sol\":411:557  Tweet({... */\n      0xffffffffffffffffffffffffffffffffffffffff\n      and\n      dup2\n      mstore\n      0x20\n      add\n        /* \"contracts/twitter.sol\":475:481  _tweet */\n      dup4\n        /* \"contracts/twitter.sol\":411:557  Tweet({... */\n      dup2\n      mstore\n      0x20\n      add\n        /* \"contracts/twitter.sol\":507:522  block.timestamp */\n      timestamp\n        /* \"contracts/twitter.sol\":411:557  Tweet({... */\n      dup2\n      mstore\n      0x20\n      add\n        /* \"contracts/twitter.sol\":544:545  0 */\n      0x00\n        /* \"contracts/twitter.sol\":411:557  Tweet({... */\n      dup2\n      mstore\n      pop\n        /* \"contracts/twitter.sol\":387:557  Tweet memory newTweet = Tweet({... */\n      swap1\n      pop\n        /* \"contracts/twitter.sol\":568:574  tweets */\n      0x00\n        /* \"contracts/twitter.sol\":568:586  tweets[msg.sender] */\n      0x00\n        /* \"contracts/twitter.sol\":575:585  msg.sender */\n      caller\n        /* \"contracts/twitter.sol\":568:586  tweets[msg.sender] */\n      0xffffffffffffffffffffffffffffffffffffffff\n      and\n      0xffffffffffffffffffffffffffffffffffffffff\n      and\n      dup2\n      mstore\n      0x20\n      add\n      swap1\n      dup2\n      mstore\n      0x20\n      add\n      0x00\n      keccak256\n        /* \"contracts/twitter.sol\":592:600  newTweet */\n      dup2\n        /* \"contracts/twitter.sol\":568:601  tweets[msg.sender].push(newTweet) */\n      swap1\n      dup1\n      0x01\n      dup2\n      sload\n      add\n      dup1\n      dup3\n      sstore\n      dup1\n      swap2\n      pop\n      pop\n      0x01\n      swap1\n      sub\n      swap1\n      0x00\n      mstore\n      keccak256(0x00, 0x20)\n      swap1\n      0x04\n      mul\n      add\n      0x00\n      swap1\n      swap2\n      swap1\n      swap2\n      swap1\n      swap2\n      pop\n      0x00\n      dup3\n      add\n      mload\n      dup2\n      0x00\n      add\n      exp(0x0100, 0x00)\n      dup2\n      sload\n      dup2\n      0xffffffffffffffffffffffffffffffffffffffff\n      mul\n      not\n      and\n      swap1\n      dup4\n      0xffffffffffffffffffffffffffffffffffffffff\n      and\n      mul\n      or\n      swap1\n      sstore\n      pop\n      0x20\n      dup3\n      add\n      mload\n      dup2\n      0x01\n      add\n      swap1\n      dup2\n      tag_46\n      swap2\n      swap1\n      tag_47\n      jump\t// in\n    tag_46:\n      pop\n      0x40\n      dup3\n      add\n      mload\n      dup2\n      0x02\n      add\n      sstore\n      0x60\n      dup3\n      add\n      mload\n      dup2\n      0x03\n      add\n      sstore\n      pop\n      pop\n        /* \"contracts/twitter.sol\":314:609  {... */\n      pop\n        /* \"contracts/twitter.sol\":265:609  function createTweet(string memory _tweet) public{... */\n      pop\n      jump\t// out\n    tag_30:\n      mload(0x40)\n      dup1\n      0x80\n      add\n      0x40\n      mstore\n      dup1\n      and(0xffffffffffffffffffffffffffffffffffffffff, 0x00)\n      dup2\n      mstore\n      0x20\n      add\n      0x60\n      dup2\n      mstore\n      0x20\n      add\n      0x00\n      dup2\n      mstore\n      0x20\n      add\n      0x00\n      dup2\n      mstore\n      pop\n      swap1\n      jump\t// out\n        /* \"#utility.yul\":7:82   */\n    tag_48:\n        /* \"#utility.yul\":40:46   */\n      0x00\n        /* \"#utility.yul\":73:75   */\n      0x40\n        /* \"#utility.yul\":67:76   */\n      mload\n        /* \"#utility.yul\":57:76   */\n      swap1\n      pop\n        /* \"#utility.yul\":7:82   */\n      swap1\n      jump\t// out\n        /* \"#utility.yul\":88:205   */\n    tag_49:\n        /* \"#utility.yul\":197:198   */\n      0x00\n        /* \"#utility.yul\":194:195   */\n      0x00\n        /* \"#utility.yul\":187:199   */\n      revert\n        /* \"#utility.yul\":211:328   */\n    tag_50:\n        /* \"#utility.yul\":320:321   */\n      0x00\n        /* \"#utility.yul\":317:318   */\n      0x00\n        /* \"#utility.yul\":310:322   */\n      revert\n        /* \"#utility.yul\":334:460   */\n    tag_51:\n        /* \"#utility.yul\":371:378   */\n      0x00\n        /* \"#utility.yul\":411:453   */\n      0xffffffffffffffffffffffffffffffffffffffff\n        /* \"#utility.yul\":404:409   */\n      dup3\n        /* \"#utility.yul\":400:454   */\n      and\n        /* \"#utility.yul\":389:454   */\n      swap1\n      pop\n        /* \"#utility.yul\":334:460   */\n      swap2\n      swap1\n      pop\n      jump\t// out\n        /* \"#utility.yul\":466:562   */\n    tag_52:\n        /* \"#utility.yul\":503:510   */\n      0x00\n        /* \"#utility.yul\":532:556   */\n      tag_103\n        /* \"#utility.yul\":550:555   */\n      dup3\n        /* \"#utility.yul\":532:556   */\n      tag_51\n      jump\t// in\n    tag_103:\n        /* \"#utility.yul\":521:556   */\n      swap1\n      pop\n        /* \"#utility.yul\":466:562   */\n      swap2\n      swap1\n      pop\n      jump\t// out\n        /* \"#utility.yul\":568:690   */\n    tag_53:\n        /* \"#utility.yul\":641:665   */\n      tag_105\n        /* \"#utility.yul\":659:664   */\n      dup2\n        /* \"#utility.yul\":641:665   */\n      tag_52\n      jump\t// in\n    tag_105:\n        /* \"#utility.yul\":634:639   */\n      dup2\n        /* \"#utility.yul\":631:666   */\n      eq\n        /* \"#utility.yul\":621:684   */\n      tag_106\n      jumpi\n        /* \"#utility.yul\":680:681   */\n      0x00\n        /* \"#utility.yul\":677:678   */\n      0x00\n        /* \"#utility.yul\":670:682   */\n      revert\n        /* \"#utility.yul\":621:684   */\n    tag_106:\n        /* \"#utility.yul\":568:690   */\n      pop\n      jump\t// out\n        /* \"#utility.yul\":696:835   */\n    tag_54:\n        /* \"#utility.yul\":742:747   */\n      0x00\n        /* \"#utility.yul\":780:786   */\n      dup2\n        /* \"#utility.yul\":767:787   */\n      calldataload\n        /* \"#utility.yul\":758:787   */\n      swap1\n      pop\n        /* \"#utility.yul\":796:829   */\n      tag_108\n        /* \"#utility.yul\":823:828   */\n      dup2\n        /* \"#utility.yul\":796:829   */\n      tag_53\n      jump\t// in\n    tag_108:\n        /* \"#utility.yul\":696:835   */\n      swap3\n      swap2\n      pop\n      pop\n      jump\t// out\n        /* \"#utility.yul\":841:918   */\n    tag_55:\n        /* \"#utility.yul\":878:885   */\n      0x00\n        /* \"#utility.yul\":907:912   */\n      dup2\n        /* \"#utility.yul\":896:912   */\n      swap1\n      pop\n        /* \"#utility.yul\":841:918   */\n      swap2\n      swap1\n      pop\n      jump\t// out\n        /* \"#utility.yul\":924:1046   */\n    tag_56:\n        /* \"#utility.yul\":997:1021   */\n      tag_111\n        /* \"#utility.yul\":1015:1020   */\n      dup2\n        /* \"#utility.yul\":997:1021   */\n      tag_55\n      jump\t// in\n    tag_111:\n        /* \"#utility.yul\":990:995   */\n      dup2\n        /* \"#utility.yul\":987:1022   */\n      eq\n        /* \"#utility.yul\":977:1040   */\n      tag_112\n      jumpi\n        /* \"#utility.yul\":1036:1037   */\n      0x00\n        /* \"#utility.yul\":1033:1034   */\n      0x00\n        /* \"#utility.yul\":1026:1038   */\n      revert\n        /* \"#utility.yul\":977:1040   */\n    tag_112:\n        /* \"#utility.yul\":924:1046   */\n      pop\n      jump\t// out\n        /* \"#utility.yul\":1052:1191   */\n    tag_57:\n        /* \"#utility.yul\":1098:1103   */\n      0x00\n        /* \"#utility.yul\":1136:1142   */\n      dup2\n        /* \"#utility.yul\":1123:1143   */\n      calldataload\n        /* \"#utility.yul\":1114:1143   */\n      swap1\n      pop\n        /* \"#utility.yul\":1152:1185   */\n      tag_114\n        /* \"#utility.yul\":1179:1184   */\n      dup2\n        /* \"#utility.yul\":1152:1185   */\n      tag_56\n      jump\t// in\n    tag_114:\n        /* \"#utility.yul\":1052:1191   */\n      swap3\n      swap2\n      pop\n      pop\n      jump\t// out\n        /* \"#utility.yul\":1197:1671   */\n    tag_8:\n        /* \"#utility.yul\":1265:1271   */\n      0x00\n        /* \"#utility.yul\":1273:1279   */\n      0x00\n        /* \"#utility.yul\":1322:1324   */\n      0x40\n        /* \"#utility.yul\":1310:1319   */\n      dup4\n        /* \"#utility.yul\":1301:1308   */\n      dup6\n        /* \"#utility.yul\":1297:1320   */\n      sub\n        /* \"#utility.yul\":1293:1325   */\n      slt\n        /* \"#utility.yul\":1290:1409   */\n      iszero\n      tag_116\n      jumpi\n        /* \"#utility.yul\":1328:1407   */\n      tag_117\n      tag_49\n      jump\t// in\n    tag_117:\n        /* \"#utility.yul\":1290:1409   */\n    tag_116:\n        /* \"#utility.yul\":1448:1449   */\n      0x00\n        /* \"#utility.yul\":1473:1526   */\n      tag_118\n        /* \"#utility.yul\":1518:1525   */\n      dup6\n        /* \"#utility.yul\":1509:1515   */\n      dup3\n        /* \"#utility.yul\":1498:1507   */\n      dup7\n        /* \"#utility.yul\":1494:1516   */\n      add\n        /* \"#utility.yul\":1473:1526   */\n      tag_54\n      jump\t// in\n    tag_118:\n        /* \"#utility.yul\":1463:1526   */\n      swap3\n      pop\n        /* \"#utility.yul\":1419:1536   */\n      pop\n        /* \"#utility.yul\":1575:1577   */\n      0x20\n        /* \"#utility.yul\":1601:1654   */\n      tag_119\n        /* \"#utility.yul\":1646:1653   */\n      dup6\n        /* \"#utility.yul\":1637:1643   */\n      dup3\n        /* \"#utility.yul\":1626:1635   */\n      dup7\n        /* \"#utility.yul\":1622:1644   */\n      add\n        /* \"#utility.yul\":1601:1654   */\n      tag_57\n      jump\t// in\n    tag_119:\n        /* \"#utility.yul\":1591:1654   */\n      swap2\n      pop\n        /* \"#utility.yul\":1546:1664   */\n      pop\n        /* \"#utility.yul\":1197:1671   */\n      swap3\n      pop\n      swap3\n      swap1\n      pop\n      jump\t// out\n        /* \"#utility.yul\":1677:1795   */\n    tag_58:\n        /* \"#utility.yul\":1764:1788   */\n      tag_121\n        /* \"#utility.yul\":1782:1787   */\n      dup2\n        /* \"#utility.yul\":1764:1788   */\n      tag_52\n      jump\t// in\n    tag_121:\n        /* \"#utility.yul\":1759:1762   */\n      dup3\n        /* \"#utility.yul\":1752:1789   */\n      mstore\n        /* \"#utility.yul\":1677:1795   */\n      pop\n      pop\n      jump\t// out\n        /* \"#utility.yul\":1801:1900   */\n    tag_59:\n        /* \"#utility.yul\":1853:1859   */\n      0x00\n        /* \"#utility.yul\":1887:1892   */\n      dup2\n        /* \"#utility.yul\":1881:1893   */\n      mload\n        /* \"#utility.yul\":1871:1893   */\n      swap1\n      pop\n        /* \"#utility.yul\":1801:1900   */\n      swap2\n      swap1\n      pop\n      jump\t// out\n        /* \"#utility.yul\":1906:2075   */\n    tag_60:\n        /* \"#utility.yul\":1990:2001   */\n      0x00\n        /* \"#utility.yul\":2024:2030   */\n      dup3\n        /* \"#utility.yul\":2019:2022   */\n      dup3\n        /* \"#utility.yul\":2012:2031   */\n      mstore\n        /* \"#utility.yul\":2064:2068   */\n      0x20\n        /* \"#utility.yul\":2059:2062   */\n      dup3\n        /* \"#utility.yul\":2055:2069   */\n      add\n        /* \"#utility.yul\":2040:2069   */\n      swap1\n      pop\n        /* \"#utility.yul\":1906:2075   */\n      swap3\n      swap2\n      pop\n      pop\n      jump\t// out\n        /* \"#utility.yul\":2081:2220   */\n    tag_61:\n        /* \"#utility.yul\":2170:2176   */\n      dup3\n        /* \"#utility.yul\":2165:2168   */\n      dup2\n        /* \"#utility.yul\":2160:2163   */\n      dup4\n        /* \"#utility.yul\":2154:2177   */\n      mcopy\n        /* \"#utility.yul\":2211:2212   */\n      0x00\n        /* \"#utility.yul\":2202:2208   */\n      dup4\n        /* \"#utility.yul\":2197:2200   */\n      dup4\n        /* \"#utility.yul\":2193:2209   */\n      add\n        /* \"#utility.yul\":2186:2213   */\n      mstore\n        /* \"#utility.yul\":2081:2220   */\n      pop\n      pop\n      pop\n      jump\t// out\n        /* \"#utility.yul\":2226:2328   */\n    tag_62:\n        /* \"#utility.yul\":2267:2273   */\n      0x00\n        /* \"#utility.yul\":2318:2320   */\n      0x1f\n        /* \"#utility.yul\":2314:2321   */\n      not\n        /* \"#utility.yul\":2309:2311   */\n      0x1f\n        /* \"#utility.yul\":2302:2307   */\n      dup4\n        /* \"#utility.yul\":2298:2312   */\n      add\n        /* \"#utility.yul\":2294:2322   */\n      and\n        /* \"#utility.yul\":2284:2322   */\n      swap1\n      pop\n        /* \"#utility.yul\":2226:2328   */\n      swap2\n      swap1\n      pop\n      jump\t// out\n        /* \"#utility.yul\":2334:2711   */\n    tag_63:\n        /* \"#utility.yul\":2422:2425   */\n      0x00\n        /* \"#utility.yul\":2450:2489   */\n      tag_127\n        /* \"#utility.yul\":2483:2488   */\n      dup3\n        /* \"#utility.yul\":2450:2489   */\n      tag_59\n      jump\t// in\n    tag_127:\n        /* \"#utility.yul\":2505:2576   */\n      tag_128\n        /* \"#utility.yul\":2569:2575   */\n      dup2\n        /* \"#utility.yul\":2564:2567   */\n      dup6\n        /* \"#utility.yul\":2505:2576   */\n      tag_60\n      jump\t// in\n    tag_128:\n        /* \"#utility.yul\":2498:2576   */\n      swap4\n      pop\n        /* \"#utility.yul\":2585:2650   */\n      tag_129\n        /* \"#utility.yul\":2643:2649   */\n      dup2\n        /* \"#utility.yul\":2638:2641   */\n      dup6\n        /* \"#utility.yul\":2631:2635   */\n      0x20\n        /* \"#utility.yul\":2624:2629   */\n      dup7\n        /* \"#utility.yul\":2620:2636   */\n      add\n        /* \"#utility.yul\":2585:2650   */\n      tag_61\n      jump\t// in\n    tag_129:\n        /* \"#utility.yul\":2675:2704   */\n      tag_130\n        /* \"#utility.yul\":2697:2703   */\n      dup2\n        /* \"#utility.yul\":2675:2704   */\n      tag_62\n      jump\t// in\n    tag_130:\n        /* \"#utility.yul\":2670:2673   */\n      dup5\n        /* \"#utility.yul\":2666:2705   */\n      add\n        /* \"#utility.yul\":2659:2705   */\n      swap2\n      pop\n        /* \"#utility.yul\":2426:2711   */\n      pop\n        /* \"#utility.yul\":2334:2711   */\n      swap3\n      swap2\n      pop\n      pop\n      jump\t// out\n        /* \"#utility.yul\":2717:2835   */\n    tag_64:\n        /* \"#utility.yul\":2804:2828   */\n      tag_132\n        /* \"#utility.yul\":2822:2827   */\n      dup2\n        /* \"#utility.yul\":2804:2828   */\n      tag_55\n      jump\t// in\n    tag_132:\n        /* \"#utility.yul\":2799:2802   */\n      dup3\n        /* \"#utility.yul\":2792:2829   */\n      mstore\n        /* \"#utility.yul\":2717:2835   */\n      pop\n      pop\n      jump\t// out\n        /* \"#utility.yul\":2841:3485   */\n    tag_11:\n        /* \"#utility.yul\":3038:3042   */\n      0x00\n        /* \"#utility.yul\":3076:3079   */\n      0x80\n        /* \"#utility.yul\":3065:3074   */\n      dup3\n        /* \"#utility.yul\":3061:3080   */\n      add\n        /* \"#utility.yul\":3053:3080   */\n      swap1\n      pop\n        /* \"#utility.yul\":3090:3161   */\n      tag_134\n        /* \"#utility.yul\":3158:3159   */\n      0x00\n        /* \"#utility.yul\":3147:3156   */\n      dup4\n        /* \"#utility.yul\":3143:3160   */\n      add\n        /* \"#utility.yul\":3134:3140   */\n      dup8\n        /* \"#utility.yul\":3090:3161   */\n      tag_58\n      jump\t// in\n    tag_134:\n        /* \"#utility.yul\":3208:3217   */\n      dup2\n        /* \"#utility.yul\":3202:3206   */\n      dup2\n        /* \"#utility.yul\":3198:3218   */\n      sub\n        /* \"#utility.yul\":3193:3195   */\n      0x20\n        /* \"#utility.yul\":3182:3191   */\n      dup4\n        /* \"#utility.yul\":3178:3196   */\n      add\n        /* \"#utility.yul\":3171:3219   */\n      mstore\n        /* \"#utility.yul\":3236:3314   */\n      tag_135\n        /* \"#utility.yul\":3309:3313   */\n      dup2\n        /* \"#utility.yul\":3300:3306   */\n      dup7\n        /* \"#utility.yul\":3236:3314   */\n      tag_63\n      jump\t// in\n    tag_135:\n        /* \"#utility.yul\":3228:3314   */\n      swap1\n      pop\n        /* \"#utility.yul\":3324:3396   */\n      tag_136\n        /* \"#utility.yul\":3392:3394   */\n      0x40\n        /* \"#utility.yul\":3381:3390   */\n      dup4\n        /* \"#utility.yul\":3377:3395   */\n      add\n        /* \"#utility.yul\":3368:3374   */\n      dup6\n        /* \"#utility.yul\":3324:3396   */\n      tag_64\n      jump\t// in\n    tag_136:\n        /* \"#utility.yul\":3406:3478   */\n      tag_137\n        /* \"#utility.yul\":3474:3476   */\n      0x60\n        /* \"#utility.yul\":3463:3472   */\n      dup4\n        /* \"#utility.yul\":3459:3477   */\n      add\n        /* \"#utility.yul\":3450:3456   */\n      dup5\n        /* \"#utility.yul\":3406:3478   */\n      tag_64\n      jump\t// in\n    tag_137:\n        /* \"#utility.yul\":2841:3485   */\n      swap6\n      swap5\n      pop\n      pop\n      pop\n      pop\n      pop\n      jump\t// out\n        /* \"#utility.yul\":3491:3599   */\n    tag_65:\n        /* \"#utility.yul\":3568:3592   */\n      tag_139\n        /* \"#utility.yul\":3586:3591   */\n      dup2\n        /* \"#utility.yul\":3568:3592   */\n      tag_52\n      jump\t// in\n    tag_139:\n        /* \"#utility.yul\":3563:3566   */\n      dup3\n        /* \"#utility.yul\":3556:3593   */\n      mstore\n        /* \"#utility.yul\":3491:3599   */\n      pop\n      pop\n      jump\t// out\n        /* \"#utility.yul\":3605:3764   */\n    tag_66:\n        /* \"#utility.yul\":3679:3690   */\n      0x00\n        /* \"#utility.yul\":3713:3719   */\n      dup3\n        /* \"#utility.yul\":3708:3711   */\n      dup3\n        /* \"#utility.yul\":3701:3720   */\n      mstore\n        /* \"#utility.yul\":3753:3757   */\n      0x20\n        /* \"#utility.yul\":3748:3751   */\n      dup3\n        /* \"#utility.yul\":3744:3758   */\n      add\n        /* \"#utility.yul\":3729:3758   */\n      swap1\n      pop\n        /* \"#utility.yul\":3605:3764   */\n      swap3\n      swap2\n      pop\n      pop\n      jump\t// out\n        /* \"#utility.yul\":3770:4127   */\n    tag_67:\n        /* \"#utility.yul\":3848:3851   */\n      0x00\n        /* \"#utility.yul\":3876:3915   */\n      tag_142\n        /* \"#utility.yul\":3909:3914   */\n      dup3\n        /* \"#utility.yul\":3876:3915   */\n      tag_59\n      jump\t// in\n    tag_142:\n        /* \"#utility.yul\":3931:3992   */\n      tag_143\n        /* \"#utility.yul\":3985:3991   */\n      dup2\n        /* \"#utility.yul\":3980:3983   */\n      dup6\n        /* \"#utility.yul\":3931:3992   */\n      tag_66\n      jump\t// in\n    tag_143:\n        /* \"#utility.yul\":3924:3992   */\n      swap4\n      pop\n        /* \"#utility.yul\":4001:4066   */\n      tag_144\n        /* \"#utility.yul\":4059:4065   */\n      dup2\n        /* \"#utility.yul\":4054:4057   */\n      dup6\n        /* \"#utility.yul\":4047:4051   */\n      0x20\n        /* \"#utility.yul\":4040:4045   */\n      dup7\n        /* \"#utility.yul\":4036:4052   */\n      add\n        /* \"#utility.yul\":4001:4066   */\n      tag_61\n      jump\t// in\n    tag_144:\n        /* \"#utility.yul\":4091:4120   */\n      tag_145\n        /* \"#utility.yul\":4113:4119   */\n      dup2\n        /* \"#utility.yul\":4091:4120   */\n      tag_62\n      jump\t// in\n    tag_145:\n        /* \"#utility.yul\":4086:4089   */\n      dup5\n        /* \"#utility.yul\":4082:4121   */\n      add\n        /* \"#utility.yul\":4075:4121   */\n      swap2\n      pop\n        /* \"#utility.yul\":3852:4127   */\n      pop\n        /* \"#utility.yul\":3770:4127   */\n      swap3\n      swap2\n      pop\n      pop\n      jump\t// out\n        /* \"#utility.yul\":4133:4241   */\n    tag_68:\n        /* \"#utility.yul\":4210:4234   */\n      tag_147\n        /* \"#utility.yul\":4228:4233   */\n      dup2\n        /* \"#utility.yul\":4210:4234   */\n      tag_55\n      jump\t// in\n    tag_147:\n        /* \"#utility.yul\":4205:4208   */\n      dup3\n        /* \"#utility.yul\":4198:4235   */\n      mstore\n        /* \"#utility.yul\":4133:4241   */\n      pop\n      pop\n      jump\t// out\n        /* \"#utility.yul\":4299:5256   */\n    tag_69:\n        /* \"#utility.yul\":4410:4413   */\n      0x00\n        /* \"#utility.yul\":4446:4450   */\n      0x80\n        /* \"#utility.yul\":4441:4444   */\n      dup4\n        /* \"#utility.yul\":4437:4451   */\n      add\n        /* \"#utility.yul\":4535:4539   */\n      0x00\n        /* \"#utility.yul\":4528:4533   */\n      dup4\n        /* \"#utility.yul\":4524:4540   */\n      add\n        /* \"#utility.yul\":4518:4541   */\n      mload\n        /* \"#utility.yul\":4554:4617   */\n      tag_149\n        /* \"#utility.yul\":4611:4615   */\n      0x00\n        /* \"#utility.yul\":4606:4609   */\n      dup7\n        /* \"#utility.yul\":4602:4616   */\n      add\n        /* \"#utility.yul\":4588:4600   */\n      dup3\n        /* \"#utility.yul\":4554:4617   */\n      tag_65\n      jump\t// in\n    tag_149:\n        /* \"#utility.yul\":4461:4627   */\n      pop\n        /* \"#utility.yul\":4712:4716   */\n      0x20\n        /* \"#utility.yul\":4705:4710   */\n      dup4\n        /* \"#utility.yul\":4701:4717   */\n      add\n        /* \"#utility.yul\":4695:4718   */\n      mload\n        /* \"#utility.yul\":4765:4768   */\n      dup5\n        /* \"#utility.yul\":4759:4763   */\n      dup3\n        /* \"#utility.yul\":4755:4769   */\n      sub\n        /* \"#utility.yul\":4748:4752   */\n      0x20\n        /* \"#utility.yul\":4743:4746   */\n      dup7\n        /* \"#utility.yul\":4739:4753   */\n      add\n        /* \"#utility.yul\":4732:4770   */\n      mstore\n        /* \"#utility.yul\":4791:4864   */\n      tag_150\n        /* \"#utility.yul\":4859:4863   */\n      dup3\n        /* \"#utility.yul\":4845:4857   */\n      dup3\n        /* \"#utility.yul\":4791:4864   */\n      tag_67\n      jump\t// in\n    tag_150:\n        /* \"#utility.yul\":4783:4864   */\n      swap2\n      pop\n        /* \"#utility.yul\":4637:4875   */\n      pop\n        /* \"#utility.yul\":4962:4966   */\n      0x40\n        /* \"#utility.yul\":4955:4960   */\n      dup4\n        /* \"#utility.yul\":4951:4967   */\n      add\n        /* \"#utility.yul\":4945:4968   */\n      mload\n        /* \"#utility.yul\":4981:5044   */\n      tag_151\n        /* \"#utility.yul\":5038:5042   */\n      0x40\n        /* \"#utility.yul\":5033:5036   */\n      dup7\n        /* \"#utility.yul\":5029:5043   */\n      add\n        /* \"#utility.yul\":5015:5027   */\n      dup3\n        /* \"#utility.yul\":4981:5044   */\n      tag_68\n      jump\t// in\n    tag_151:\n        /* \"#utility.yul\":4885:5054   */\n      pop\n        /* \"#utility.yul\":5137:5141   */\n      0x60\n        /* \"#utility.yul\":5130:5135   */\n      dup4\n        /* \"#utility.yul\":5126:5142   */\n      add\n        /* \"#utility.yul\":5120:5143   */\n      mload\n        /* \"#utility.yul\":5156:5219   */\n      tag_152\n        /* \"#utility.yul\":5213:5217   */\n      0x60\n        /* \"#utility.yul\":5208:5211   */\n      dup7\n        /* \"#utility.yul\":5204:5218   */\n      add\n        /* \"#utility.yul\":5190:5202   */\n      dup3\n        /* \"#utility.yul\":5156:5219   */\n      tag_68\n      jump\t// in\n    tag_152:\n        /* \"#utility.yul\":5064:5229   */\n      pop\n        /* \"#utility.yul\":5246:5250   */\n      dup1\n        /* \"#utility.yul\":5239:5250   */\n      swap2\n      pop\n        /* \"#utility.yul\":4415:5256   */\n      pop\n        /* \"#utility.yul\":4299:5256   */\n      swap3\n      swap2\n      pop\n      pop\n      jump\t// out\n        /* \"#utility.yul\":5262:5619   */\n    tag_16:\n        /* \"#utility.yul\":5397:5401   */\n      0x00\n        /* \"#utility.yul\":5435:5437   */\n      0x20\n        /* \"#utility.yul\":5424:5433   */\n      dup3\n        /* \"#utility.yul\":5420:5438   */\n      add\n        /* \"#utility.yul\":5412:5438   */\n      swap1\n      pop\n        /* \"#utility.yul\":5484:5493   */\n      dup2\n        /* \"#utility.yul\":5478:5482   */\n      dup2\n        /* \"#utility.yul\":5474:5494   */\n      sub\n        /* \"#utility.yul\":5470:5471   */\n      0x00\n        /* \"#utility.yul\":5459:5468   */\n      dup4\n        /* \"#utility.yul\":5455:5472   */\n      add\n        /* \"#utility.yul\":5448:5495   */\n      mstore\n        /* \"#utility.yul\":5512:5612   */\n      tag_154\n        /* \"#utility.yul\":5607:5611   */\n      dup2\n        /* \"#utility.yul\":5598:5604   */\n      dup5\n        /* \"#utility.yul\":5512:5612   */\n      tag_69\n      jump\t// in\n    tag_154:\n        /* \"#utility.yul\":5504:5612   */\n      swap1\n      pop\n        /* \"#utility.yul\":5262:5619   */\n      swap3\n      swap2\n      pop\n      pop\n      jump\t// out\n        /* \"#utility.yul\":5625:5742   */\n    tag_70:\n        /* \"#utility.yul\":5734:5735   */\n      0x00\n        /* \"#utility.yul\":5731:5732   */\n      0x00\n        /* \"#utility.yul\":5724:5736   */\n      revert\n        /* \"#utility.yul\":5748:5865   */\n    tag_71:\n        /* \"#utility.yul\":5857:5858   */\n      0x00\n        /* \"#utility.yul\":5854:5855   */\n      0x00\n        /* \"#utility.yul\":5847:5859   */\n      revert\n        /* \"#utility.yul\":5871:6051   */\n    tag_72:\n        /* \"#utility.yul\":5919:5996   */\n      0x4e487b7100000000000000000000000000000000000000000000000000000000\n        /* \"#utility.yul\":5916:5917   */\n      0x00\n        /* \"#utility.yul\":5909:5997   */\n      mstore\n        /* \"#utility.yul\":6016:6020   */\n      0x41\n        /* \"#utility.yul\":6013:6014   */\n      0x04\n        /* \"#utility.yul\":6006:6021   */\n      mstore\n        /* \"#utility.yul\":6040:6044   */\n      0x24\n        /* \"#utility.yul\":6037:6038   */\n      0x00\n        /* \"#utility.yul\":6030:6045   */\n      revert\n        /* \"#utility.yul\":6057:6338   */\n    tag_73:\n        /* \"#utility.yul\":6140:6167   */\n      tag_159\n        /* \"#utility.yul\":6162:6166   */\n      dup3\n        /* \"#utility.yul\":6140:6167   */\n      tag_62\n      jump\t// in\n    tag_159:\n        /* \"#utility.yul\":6132:6138   */\n      dup2\n        /* \"#utility.yul\":6128:6168   */\n      add\n        /* \"#utility.yul\":6270:6276   */\n      dup2\n        /* \"#utility.yul\":6258:6268   */\n      dup2\n        /* \"#utility.yul\":6255:6277   */\n      lt\n        /* \"#utility.yul\":6234:6252   */\n      0xffffffffffffffff\n        /* \"#utility.yul\":6222:6232   */\n      dup3\n        /* \"#utility.yul\":6219:6253   */\n      gt\n        /* \"#utility.yul\":6216:6278   */\n      or\n        /* \"#utility.yul\":6213:6301   */\n      iszero\n      tag_160\n      jumpi\n        /* \"#utility.yul\":6281:6299   */\n      tag_161\n      tag_72\n      jump\t// in\n    tag_161:\n        /* \"#utility.yul\":6213:6301   */\n    tag_160:\n        /* \"#utility.yul\":6321:6331   */\n      dup1\n        /* \"#utility.yul\":6317:6319   */\n      0x40\n        /* \"#utility.yul\":6310:6332   */\n      mstore\n        /* \"#utility.yul\":6100:6338   */\n      pop\n        /* \"#utility.yul\":6057:6338   */\n      pop\n      pop\n      jump\t// out\n        /* \"#utility.yul\":6344:6473   */\n    tag_74:\n        /* \"#utility.yul\":6378:6384   */\n      0x00\n        /* \"#utility.yul\":6405:6425   */\n      tag_163\n      tag_48\n      jump\t// in\n    tag_163:\n        /* \"#utility.yul\":6395:6425   */\n      swap1\n      pop\n        /* \"#utility.yul\":6434:6467   */\n      tag_164\n        /* \"#utility.yul\":6462:6466   */\n      dup3\n        /* \"#utility.yul\":6454:6460   */\n      dup3\n        /* \"#utility.yul\":6434:6467   */\n      tag_73\n      jump\t// in\n    tag_164:\n        /* \"#utility.yul\":6344:6473   */\n      swap2\n      swap1\n      pop\n      jump\t// out\n        /* \"#utility.yul\":6479:6787   */\n    tag_75:\n        /* \"#utility.yul\":6541:6545   */\n      0x00\n        /* \"#utility.yul\":6631:6649   */\n      0xffffffffffffffff\n        /* \"#utility.yul\":6623:6629   */\n      dup3\n        /* \"#utility.yul\":6620:6650   */\n      gt\n        /* \"#utility.yul\":6617:6673   */\n      iszero\n      tag_166\n      jumpi\n        /* \"#utility.yul\":6653:6671   */\n      tag_167\n      tag_72\n      jump\t// in\n    tag_167:\n        /* \"#utility.yul\":6617:6673   */\n    tag_166:\n        /* \"#utility.yul\":6691:6720   */\n      tag_168\n        /* \"#utility.yul\":6713:6719   */\n      dup3\n        /* \"#utility.yul\":6691:6720   */\n      tag_62\n      jump\t// in\n    tag_168:\n        /* \"#utility.yul\":6683:6720   */\n      swap1\n      pop\n        /* \"#utility.yul\":6775:6779   */\n      0x20\n        /* \"#utility.yul\":6769:6773   */\n      dup2\n        /* \"#utility.yul\":6765:6780   */\n      add\n        /* \"#utility.yul\":6757:6780   */\n      swap1\n      pop\n        /* \"#utility.yul\":6479:6787   */\n      swap2\n      swap1\n      pop\n      jump\t// out\n        /* \"#utility.yul\":6793:6941   */\n    tag_76:\n        /* \"#utility.yul\":6891:6897   */\n      dup3\n        /* \"#utility.yul\":6886:6889   */\n      dup2\n        /* \"#utility.yul\":6881:6884   */\n      dup4\n        /* \"#utility.yul\":6868:6898   */\n      calldatacopy\n        /* \"#utility.yul\":6932:6933   */\n      0x00\n        /* \"#utility.yul\":6923:6929   */\n      dup4\n        /* \"#utility.yul\":6918:6921   */\n      dup4\n        /* \"#utility.yul\":6914:6930   */\n      add\n        /* \"#utility.yul\":6907:6934   */\n      mstore\n        /* \"#utility.yul\":6793:6941   */\n      pop\n      pop\n      pop\n      jump\t// out\n        /* \"#utility.yul\":6947:7372   */\n    tag_77:\n        /* \"#utility.yul\":7025:7030   */\n      0x00\n        /* \"#utility.yul\":7050:7116   */\n      tag_171\n        /* \"#utility.yul\":7066:7115   */\n      tag_172\n        /* \"#utility.yul\":7108:7114   */\n      dup5\n        /* \"#utility.yul\":7066:7115   */\n      tag_75\n      jump\t// in\n    tag_172:\n        /* \"#utility.yul\":7050:7116   */\n      tag_74\n      jump\t// in\n    tag_171:\n        /* \"#utility.yul\":7041:7116   */\n      swap1\n      pop\n        /* \"#utility.yul\":7139:7145   */\n      dup3\n        /* \"#utility.yul\":7132:7137   */\n      dup2\n        /* \"#utility.yul\":7125:7146   */\n      mstore\n        /* \"#utility.yul\":7177:7181   */\n      0x20\n        /* \"#utility.yul\":7170:7175   */\n      dup2\n        /* \"#utility.yul\":7166:7182   */\n      add\n        /* \"#utility.yul\":7215:7218   */\n      dup5\n        /* \"#utility.yul\":7206:7212   */\n      dup5\n        /* \"#utility.yul\":7201:7204   */\n      dup5\n        /* \"#utility.yul\":7197:7213   */\n      add\n        /* \"#utility.yul\":7194:7219   */\n      gt\n        /* \"#utility.yul\":7191:7303   */\n      iszero\n      tag_173\n      jumpi\n        /* \"#utility.yul\":7222:7301   */\n      tag_174\n      tag_71\n      jump\t// in\n    tag_174:\n        /* \"#utility.yul\":7191:7303   */\n    tag_173:\n        /* \"#utility.yul\":7312:7366   */\n      tag_175\n        /* \"#utility.yul\":7359:7365   */\n      dup5\n        /* \"#utility.yul\":7354:7357   */\n      dup3\n        /* \"#utility.yul\":7349:7352   */\n      dup6\n        /* \"#utility.yul\":7312:7366   */\n      tag_76\n      jump\t// in\n    tag_175:\n        /* \"#utility.yul\":7031:7372   */\n      pop\n        /* \"#utility.yul\":6947:7372   */\n      swap4\n      swap3\n      pop\n      pop\n      pop\n      jump\t// out\n        /* \"#utility.yul\":7392:7732   */\n    tag_78:\n        /* \"#utility.yul\":7448:7453   */\n      0x00\n        /* \"#utility.yul\":7497:7500   */\n      dup3\n        /* \"#utility.yul\":7490:7494   */\n      0x1f\n        /* \"#utility.yul\":7482:7488   */\n      dup4\n        /* \"#utility.yul\":7478:7495   */\n      add\n        /* \"#utility.yul\":7474:7501   */\n      slt\n        /* \"#utility.yul\":7464:7586   */\n      tag_177\n      jumpi\n        /* \"#utility.yul\":7505:7584   */\n      tag_178\n      tag_70\n      jump\t// in\n    tag_178:\n        /* \"#utility.yul\":7464:7586   */\n    tag_177:\n        /* \"#utility.yul\":7622:7628   */\n      dup2\n        /* \"#utility.yul\":7609:7629   */\n      calldataload\n        /* \"#utility.yul\":7647:7726   */\n      tag_179\n        /* \"#utility.yul\":7722:7725   */\n      dup5\n        /* \"#utility.yul\":7714:7720   */\n      dup3\n        /* \"#utility.yul\":7707:7711   */\n      0x20\n        /* \"#utility.yul\":7699:7705   */\n      dup7\n        /* \"#utility.yul\":7695:7712   */\n      add\n        /* \"#utility.yul\":7647:7726   */\n      tag_77\n      jump\t// in\n    tag_179:\n        /* \"#utility.yul\":7638:7726   */\n      swap2\n      pop\n        /* \"#utility.yul\":7454:7732   */\n      pop\n        /* \"#utility.yul\":7392:7732   */\n      swap3\n      swap2\n      pop\n      pop\n      jump\t// out\n        /* \"#utility.yul\":7738:8247   */\n    tag_19:\n        /* \"#utility.yul\":7807:7813   */\n      0x00\n        /* \"#utility.yul\":7856:7858   */\n      0x20\n        /* \"#utility.yul\":7844:7853   */\n      dup3\n        /* \"#utility.yul\":7835:7842   */\n      dup5\n        /* \"#utility.yul\":7831:7854   */\n      sub\n        /* \"#utility.yul\":7827:7859   */\n      slt\n        /* \"#utility.yul\":7824:7943   */\n      iszero\n      tag_181\n      jumpi\n        /* \"#utility.yul\":7862:7941   */\n      tag_182\n      tag_49\n      jump\t// in\n    tag_182:\n        /* \"#utility.yul\":7824:7943   */\n    tag_181:\n        /* \"#utility.yul\":8010:8011   */\n      0x00\n        /* \"#utility.yul\":7999:8008   */\n      dup3\n        /* \"#utility.yul\":7995:8012   */\n      add\n        /* \"#utility.yul\":7982:8013   */\n      calldataload\n        /* \"#utility.yul\":8040:8058   */\n      0xffffffffffffffff\n        /* \"#utility.yul\":8032:8038   */\n      dup2\n        /* \"#utility.yul\":8029:8059   */\n      gt\n        /* \"#utility.yul\":8026:8143   */\n      iszero\n      tag_183\n      jumpi\n        /* \"#utility.yul\":8062:8141   */\n      tag_184\n      tag_50\n      jump\t// in\n    tag_184:\n        /* \"#utility.yul\":8026:8143   */\n    tag_183:\n        /* \"#utility.yul\":8167:8230   */\n      tag_185\n        /* \"#utility.yul\":8222:8229   */\n      dup5\n        /* \"#utility.yul\":8213:8219   */\n      dup3\n        /* \"#utility.yul\":8202:8211   */\n      dup6\n        /* \"#utility.yul\":8198:8220   */\n      add\n        /* \"#utility.yul\":8167:8230   */\n      tag_78\n      jump\t// in\n    tag_185:\n        /* \"#utility.yul\":8157:8230   */\n      swap2\n      pop\n        /* \"#utility.yul\":7953:8240   */\n      pop\n        /* \"#utility.yul\":7738:8247   */\n      swap3\n      swap2\n      pop\n      pop\n      jump\t// out\n        /* \"#utility.yul\":8253:8433   */\n    tag_79:\n        /* \"#utility.yul\":8301:8378   */\n      0x4e487b7100000000000000000000000000000000000000000000000000000000\n        /* \"#utility.yul\":8298:8299   */\n      0x00\n        /* \"#utility.yul\":8291:8379   */\n      mstore\n        /* \"#utility.yul\":8398:8402   */\n      0x22\n        /* \"#utility.yul\":8395:8396   */\n      0x04\n        /* \"#utility.yul\":8388:8403   */\n      mstore\n        /* \"#utility.yul\":8422:8426   */\n      0x24\n        /* \"#utility.yul\":8419:8420   */\n      0x00\n        /* \"#utility.yul\":8412:8427   */\n      revert\n        /* \"#utility.yul\":8439:8759   */\n    tag_24:\n        /* \"#utility.yul\":8483:8489   */\n      0x00\n        /* \"#utility.yul\":8520:8521   */\n      0x02\n        /* \"#utility.yul\":8514:8518   */\n      dup3\n        /* \"#utility.yul\":8510:8522   */\n      div\n        /* \"#utility.yul\":8500:8522   */\n      swap1\n      pop\n        /* \"#utility.yul\":8567:8568   */\n      0x01\n        /* \"#utility.yul\":8561:8565   */\n      dup3\n        /* \"#utility.yul\":8557:8569   */\n      and\n        /* \"#utility.yul\":8588:8606   */\n      dup1\n        /* \"#utility.yul\":8578:8659   */\n      tag_188\n      jumpi\n        /* \"#utility.yul\":8644:8648   */\n      0x7f\n        /* \"#utility.yul\":8636:8642   */\n      dup3\n        /* \"#utility.yul\":8632:8649   */\n      and\n        /* \"#utility.yul\":8622:8649   */\n      swap2\n      pop\n        /* \"#utility.yul\":8578:8659   */\n    tag_188:\n        /* \"#utility.yul\":8706:8708   */\n      0x20\n        /* \"#utility.yul\":8698:8704   */\n      dup3\n        /* \"#utility.yul\":8695:8709   */\n      lt\n        /* \"#utility.yul\":8675:8693   */\n      dup2\n        /* \"#utility.yul\":8672:8710   */\n      sub\n        /* \"#utility.yul\":8669:8753   */\n      tag_189\n      jumpi\n        /* \"#utility.yul\":8725:8743   */\n      tag_190\n      tag_79\n      jump\t// in\n    tag_190:\n        /* \"#utility.yul\":8669:8753   */\n    tag_189:\n        /* \"#utility.yul\":8490:8759   */\n      pop\n        /* \"#utility.yul\":8439:8759   */\n      swap2\n      swap1\n      pop\n      jump\t// out\n        /* \"#utility.yul\":8765:8945   */\n    tag_34:\n        /* \"#utility.yul\":8813:8890   */\n      0x4e487b7100000000000000000000000000000000000000000000000000000000\n        /* \"#utility.yul\":8810:8811   */\n      0x00\n        /* \"#utility.yul\":8803:8891   */\n      mstore\n        /* \"#utility.yul\":8910:8914   */\n      0x32\n        /* \"#utility.yul\":8907:8908   */\n      0x04\n        /* \"#utility.yul\":8900:8915   */\n      mstore\n        /* \"#utility.yul\":8934:8938   */\n      0x24\n        /* \"#utility.yul\":8931:8932   */\n      0x00\n        /* \"#utility.yul\":8924:8939   */\n      revert\n        /* \"#utility.yul\":8951:9112   */\n    tag_80:\n        /* \"#utility.yul\":9091:9104   */\n      0x4869742074686520636170000000000000000000000000000000000000000000\n        /* \"#utility.yul\":9087:9088   */\n      0x00\n        /* \"#utility.yul\":9079:9085   */\n      dup3\n        /* \"#utility.yul\":9075:9089   */\n      add\n        /* \"#utility.yul\":9068:9105   */\n      mstore\n        /* \"#utility.yul\":8951:9112   */\n      pop\n      jump\t// out\n        /* \"#utility.yul\":9118:9484   */\n    tag_81:\n        /* \"#utility.yul\":9260:9263   */\n      0x00\n        /* \"#utility.yul\":9281:9348   */\n      tag_194\n        /* \"#utility.yul\":9345:9347   */\n      0x0b\n        /* \"#utility.yul\":9340:9343   */\n      dup4\n        /* \"#utility.yul\":9281:9348   */\n      tag_60\n      jump\t// in\n    tag_194:\n        /* \"#utility.yul\":9274:9348   */\n      swap2\n      pop\n        /* \"#utility.yul\":9357:9450   */\n      tag_195\n        /* \"#utility.yul\":9446:9449   */\n      dup3\n        /* \"#utility.yul\":9357:9450   */\n      tag_80\n      jump\t// in\n    tag_195:\n        /* \"#utility.yul\":9475:9477   */\n      0x20\n        /* \"#utility.yul\":9470:9473   */\n      dup3\n        /* \"#utility.yul\":9466:9478   */\n      add\n        /* \"#utility.yul\":9459:9478   */\n      swap1\n      pop\n        /* \"#utility.yul\":9118:9484   */\n      swap2\n      swap1\n      pop\n      jump\t// out\n        /* \"#utility.yul\":9490:9909   */\n    tag_44:\n        /* \"#utility.yul\":9656:9660   */\n      0x00\n        /* \"#utility.yul\":9694:9696   */\n      0x20\n        /* \"#utility.yul\":9683:9692   */\n      dup3\n        /* \"#utility.yul\":9679:9697   */\n      add\n        /* \"#utility.yul\":9671:9697   */\n      swap1\n      pop\n        /* \"#utility.yul\":9743:9752   */\n      dup2\n        /* \"#utility.yul\":9737:9741   */\n      dup2\n        /* \"#utility.yul\":9733:9753   */\n      sub\n        /* \"#utility.yul\":9729:9730   */\n      0x00\n        /* \"#utility.yul\":9718:9727   */\n      dup4\n        /* \"#utility.yul\":9714:9731   */\n      add\n        /* \"#utility.yul\":9707:9754   */\n      mstore\n        /* \"#utility.yul\":9771:9902   */\n      tag_197\n        /* \"#utility.yul\":9897:9901   */\n      dup2\n        /* \"#utility.yul\":9771:9902   */\n      tag_81\n      jump\t// in\n    tag_197:\n        /* \"#utility.yul\":9763:9902   */\n      swap1\n      pop\n        /* \"#utility.yul\":9490:9909   */\n      swap2\n      swap1\n      pop\n      jump\t// out\n        /* \"#utility.yul\":9915:10056   */\n    tag_82:\n        /* \"#utility.yul\":9964:9968   */\n      0x00\n        /* \"#utility.yul\":9987:9990   */\n      dup2\n        /* \"#utility.yul\":9979:9990   */\n      swap1\n      pop\n        /* \"#utility.yul\":10010:10013   */\n      dup2\n        /* \"#utility.yul\":10007:10008   */\n      0x00\n        /* \"#utility.yul\":10000:10014   */\n      mstore\n        /* \"#utility.yul\":10044:10048   */\n      0x20\n        /* \"#utility.yul\":10041:10042   */\n      0x00\n        /* \"#utility.yul\":10031:10049   */\n      keccak256\n        /* \"#utility.yul\":10023:10049   */\n      swap1\n      pop\n        /* \"#utility.yul\":9915:10056   */\n      swap2\n      swap1\n      pop\n      jump\t// out\n        /* \"#utility.yul\":10062:10155   */\n    tag_83:\n        /* \"#utility.yul\":10099:10105   */\n      0x00\n        /* \"#utility.yul\":10146:10148   */\n      0x20\n        /* \"#utility.yul\":10141:10143   */\n      0x1f\n        /* \"#utility.yul\":10134:10139   */\n      dup4\n        /* \"#utility.yul\":10130:10144   */\n      add\n        /* \"#utility.yul\":10126:10149   */\n      div\n        /* \"#utility.yul\":10116:10149   */\n      swap1\n      pop\n        /* \"#utility.yul\":10062:10155   */\n      swap2\n      swap1\n      pop\n      jump\t// out\n        /* \"#utility.yul\":10161:10268   */\n    tag_84:\n        /* \"#utility.yul\":10205:10213   */\n      0x00\n        /* \"#utility.yul\":10255:10260   */\n      dup3\n        /* \"#utility.yul\":10249:10253   */\n      dup3\n        /* \"#utility.yul\":10245:10261   */\n      shl\n        /* \"#utility.yul\":10224:10261   */\n      swap1\n      pop\n        /* \"#utility.yul\":10161:10268   */\n      swap3\n      swap2\n      pop\n      pop\n      jump\t// out\n        /* \"#utility.yul\":10274:10667   */\n    tag_85:\n        /* \"#utility.yul\":10343:10349   */\n      0x00\n        /* \"#utility.yul\":10393:10394   */\n      0x08\n        /* \"#utility.yul\":10381:10391   */\n      dup4\n        /* \"#utility.yul\":10377:10395   */\n      mul\n        /* \"#utility.yul\":10416:10513   */\n      tag_202\n        /* \"#utility.yul\":10446:10512   */\n      0xffffffffffffffffffffffffffffffffffffffffffffffffffffffffffffffff\n        /* \"#utility.yul\":10435:10444   */\n      dup3\n        /* \"#utility.yul\":10416:10513   */\n      tag_84\n      jump\t// in\n    tag_202:\n        /* \"#utility.yul\":10534:10573   */\n      tag_203\n        /* \"#utility.yul\":10564:10572   */\n      dup7\n        /* \"#utility.yul\":10553:10562   */\n      dup4\n        /* \"#utility.yul\":10534:10573   */\n      tag_84\n      jump\t// in\n    tag_203:\n        /* \"#utility.yul\":10522:10573   */\n      swap6\n      pop\n        /* \"#utility.yul\":10606:10610   */\n      dup1\n        /* \"#utility.yul\":10602:10611   */\n      not\n        /* \"#utility.yul\":10595:10600   */\n      dup5\n        /* \"#utility.yul\":10591:10612   */\n      and\n        /* \"#utility.yul\":10582:10612   */\n      swap4\n      pop\n        /* \"#utility.yul\":10655:10659   */\n      dup1\n        /* \"#utility.yul\":10645:10653   */\n      dup7\n        /* \"#utility.yul\":10641:10660   */\n      and\n        /* \"#utility.yul\":10634:10639   */\n      dup5\n        /* \"#utility.yul\":10631:10661   */\n      or\n        /* \"#utility.yul\":10621:10661   */\n      swap3\n      pop\n        /* \"#utility.yul\":10350:10667   */\n      pop\n      pop\n        /* \"#utility.yul\":10274:10667   */\n      swap4\n      swap3\n      pop\n      pop\n      pop\n      jump\t// out\n        /* \"#utility.yul\":10673:10733   */\n    tag_86:\n        /* \"#utility.yul\":10701:10704   */\n      0x00\n        /* \"#utility.yul\":10722:10727   */\n      dup2\n        /* \"#utility.yul\":10715:10727   */\n      swap1\n      pop\n        /* \"#utility.yul\":10673:10733   */\n      swap2\n      swap1\n      pop\n      jump\t// out\n        /* \"#utility.yul\":10739:10881   */\n    tag_87:\n        /* \"#utility.yul\":10789:10798   */\n      0x00\n        /* \"#utility.yul\":10822:10875   */\n      tag_206\n        /* \"#utility.yul\":10840:10874   */\n      tag_207\n        /* \"#utility.yul\":10849:10873   */\n      tag_208\n        /* \"#utility.yul\":10867:10872   */\n      dup5\n        /* \"#utility.yul\":10849:10873   */\n      tag_55\n      jump\t// in\n    tag_208:\n        /* \"#utility.yul\":10840:10874   */\n      tag_86\n      jump\t// in\n    tag_207:\n        /* \"#utility.yul\":10822:10875   */\n      tag_55\n      jump\t// in\n    tag_206:\n        /* \"#utility.yul\":10809:10875   */\n      swap1\n      pop\n        /* \"#utility.yul\":10739:10881   */\n      swap2\n      swap1\n      pop\n      jump\t// out\n        /* \"#utility.yul\":10887:10962   */\n    tag_88:\n        /* \"#utility.yul\":10930:10933   */\n      0x00\n        /* \"#utility.yul\":10951:10956   */\n      dup2\n        /* \"#utility.yul\":10944:10956   */\n      swap1\n      pop\n        /* \"#utility.yul\":10887:10962   */\n      swap2\n      swap1\n      pop\n      jump\t// out\n        /* \"#utility.yul\":10968:11237   */\n    tag_89:\n        /* \"#utility.yul\":11078:11117   */\n      tag_211\n        /* \"#utility.yul\":11109:11116   */\n      dup4\n        /* \"#utility.yul\":11078:11117   */\n      tag_87\n      jump\t// in\n    tag_211:\n        /* \"#utility.yul\":11139:11230   */\n      tag_212\n        /* \"#utility.yul\":11188:11229   */\n      tag_213\n        /* \"#utility.yul\":11212:11228   */\n      dup3\n        /* \"#utility.yul\":11188:11229   */\n      tag_88\n      jump\t// in\n    tag_213:\n        /* \"#utility.yul\":11180:11186   */\n      dup5\n        /* \"#utility.yul\":11173:11177   */\n      dup5\n        /* \"#utility.yul\":11167:11178   */\n      sload\n        /* \"#utility.yul\":11139:11230   */\n      tag_85\n      jump\t// in\n    tag_212:\n        /* \"#utility.yul\":11133:11137   */\n      dup3\n        /* \"#utility.yul\":11126:11231   */\n      sstore\n        /* \"#utility.yul\":11044:11237   */\n      pop\n        /* \"#utility.yul\":10968:11237   */\n      pop\n      pop\n      pop\n      jump\t// out\n        /* \"#utility.yul\":11243:11316   */\n    tag_90:\n        /* \"#utility.yul\":11288:11291   */\n      0x00\n        /* \"#utility.yul\":11309:11310   */\n      0x00\n        /* \"#utility.yul\":11302:11310   */\n      swap1\n      pop\n        /* \"#utility.yul\":11243:11316   */\n      swap1\n      jump\t// out\n        /* \"#utility.yul\":11322:11511   */\n    tag_91:\n        /* \"#utility.yul\":11399:11431   */\n      tag_216\n      tag_90\n      jump\t// in\n    tag_216:\n        /* \"#utility.yul\":11440:11505   */\n      tag_217\n        /* \"#utility.yul\":11498:11504   */\n      dup2\n        /* \"#utility.yul\":11490:11496   */\n      dup5\n        /* \"#utility.yul\":11484:11488   */\n      dup5\n        /* \"#utility.yul\":11440:11505   */\n      tag_89\n      jump\t// in\n    tag_217:\n        /* \"#utility.yul\":11375:11511   */\n      pop\n        /* \"#utility.yul\":11322:11511   */\n      pop\n      pop\n      jump\t// out\n        /* \"#utility.yul\":11517:11703   */\n    tag_92:\n        /* \"#utility.yul\":11577:11697   */\n    tag_219:\n        /* \"#utility.yul\":11594:11597   */\n      dup2\n        /* \"#utility.yul\":11587:11592   */\n      dup2\n        /* \"#utility.yul\":11584:11598   */\n      lt\n        /* \"#utility.yul\":11577:11697   */\n      iszero\n      tag_221\n      jumpi\n        /* \"#utility.yul\":11648:11687   */\n      tag_222\n        /* \"#utility.yul\":11685:11686   */\n      0x00\n        /* \"#utility.yul\":11678:11683   */\n      dup3\n        /* \"#utility.yul\":11648:11687   */\n      tag_91\n      jump\t// in\n    tag_222:\n        /* \"#utility.yul\":11621:11622   */\n      0x01\n        /* \"#utility.yul\":11614:11619   */\n      dup2\n        /* \"#utility.yul\":11610:11623   */\n      add\n        /* \"#utility.yul\":11601:11623   */\n      swap1\n      pop\n        /* \"#utility.yul\":11577:11697   */\n      jump(tag_219)\n    tag_221:\n        /* \"#utility.yul\":11517:11703   */\n      pop\n      pop\n      jump\t// out\n        /* \"#utility.yul\":11709:12252   */\n    tag_93:\n        /* \"#utility.yul\":11810:11812   */\n      0x1f\n        /* \"#utility.yul\":11805:11808   */\n      dup3\n        /* \"#utility.yul\":11802:11813   */\n      gt\n        /* \"#utility.yul\":11799:12245   */\n      iszero\n      tag_224\n      jumpi\n        /* \"#utility.yul\":11844:11882   */\n      tag_225\n        /* \"#utility.yul\":11876:11881   */\n      dup2\n        /* \"#utility.yul\":11844:11882   */\n      tag_82\n      jump\t// in\n    tag_225:\n        /* \"#utility.yul\":11928:11957   */\n      tag_226\n        /* \"#utility.yul\":11946:11956   */\n      dup5\n        /* \"#utility.yul\":11928:11957   */\n      tag_83\n      jump\t// in\n    tag_226:\n        /* \"#utility.yul\":11918:11926   */\n      dup2\n        /* \"#utility.yul\":11914:11958   */\n      add\n        /* \"#utility.yul\":12111:12113   */\n      0x20\n        /* \"#utility.yul\":12099:12109   */\n      dup6\n        /* \"#utility.yul\":12096:12114   */\n      lt\n        /* \"#utility.yul\":12093:12142   */\n      iszero\n      tag_227\n      jumpi\n        /* \"#utility.yul\":12132:12140   */\n      dup2\n        /* \"#utility.yul\":12117:12140   */\n      swap1\n      pop\n        /* \"#utility.yul\":12093:12142   */\n    tag_227:\n        /* \"#utility.yul\":12155:12235   */\n      tag_228\n        /* \"#utility.yul\":12211:12233   */\n      tag_229\n        /* \"#utility.yul\":12229:12232   */\n      dup6\n        /* \"#utility.yul\":12211:12233   */\n      tag_83\n      jump\t// in\n    tag_229:\n        /* \"#utility.yul\":12201:12209   */\n      dup4\n        /* \"#utility.yul\":12197:12234   */\n      add\n        /* \"#utility.yul\":12184:12195   */\n      dup3\n        /* \"#utility.yul\":12155:12235   */\n      tag_92\n      jump\t// in\n    tag_228:\n        /* \"#utility.yul\":11814:12245   */\n      pop\n      pop\n        /* \"#utility.yul\":11799:12245   */\n    tag_224:\n        /* \"#utility.yul\":11709:12252   */\n      pop\n      pop\n      pop\n      jump\t// out\n        /* \"#utility.yul\":12258:12375   */\n    tag_94:\n        /* \"#utility.yul\":12312:12320   */\n      0x00\n        /* \"#utility.yul\":12362:12367   */\n      dup3\n        /* \"#utility.yul\":12356:12360   */\n      dup3\n        /* \"#utility.yul\":12352:12368   */\n      shr\n        /* \"#utility.yul\":12331:12368   */\n      swap1\n      pop\n        /* \"#utility.yul\":12258:12375   */\n      swap3\n      swap2\n      pop\n      pop\n      jump\t// out\n        /* \"#utility.yul\":12381:12550   */\n    tag_95:\n        /* \"#utility.yul\":12425:12431   */\n      0x00\n        /* \"#utility.yul\":12458:12509   */\n      tag_232\n        /* \"#utility.yul\":12506:12507   */\n      0x00\n        /* \"#utility.yul\":12502:12508   */\n      not\n        /* \"#utility.yul\":12494:12499   */\n      dup5\n        /* \"#utility.yul\":12491:12492   */\n      0x08\n        /* \"#utility.yul\":12487:12500   */\n      mul\n        /* \"#utility.yul\":12458:12509   */\n      tag_94\n      jump\t// in\n    tag_232:\n        /* \"#utility.yul\":12454:12510   */\n      not\n        /* \"#utility.yul\":12539:12543   */\n      dup1\n        /* \"#utility.yul\":12533:12537   */\n      dup4\n        /* \"#utility.yul\":12529:12544   */\n      and\n        /* \"#utility.yul\":12519:12544   */\n      swap2\n      pop\n        /* \"#utility.yul\":12432:12550   */\n      pop\n        /* \"#utility.yul\":12381:12550   */\n      swap3\n      swap2\n      pop\n      pop\n      jump\t// out\n        /* \"#utility.yul\":12555:12850   */\n    tag_96:\n        /* \"#utility.yul\":12631:12635   */\n      0x00\n        /* \"#utility.yul\":12777:12806   */\n      tag_234\n        /* \"#utility.yul\":12802:12805   */\n      dup4\n        /* \"#utility.yul\":12796:12800   */\n      dup4\n        /* \"#utility.yul\":12777:12806   */\n      tag_95\n      jump\t// in\n    tag_234:\n        /* \"#utility.yul\":12769:12806   */\n      swap2\n      pop\n        /* \"#utility.yul\":12839:12842   */\n      dup3\n        /* \"#utility.yul\":12836:12837   */\n      0x02\n        /* \"#utility.yul\":12832:12843   */\n      mul\n        /* \"#utility.yul\":12826:12830   */\n      dup3\n        /* \"#utility.yul\":12823:12844   */\n      or\n        /* \"#utility.yul\":12815:12844   */\n      swap1\n      pop\n        /* \"#utility.yul\":12555:12850   */\n      swap3\n      swap2\n      pop\n      pop\n      jump\t// out\n        /* \"#utility.yul\":12855:14250   */\n    tag_47:\n        /* \"#utility.yul\":12972:13009   */\n      tag_236\n        /* \"#utility.yul\":13005:13008   */\n      dup3\n        /* \"#utility.yul\":12972:13009   */\n      tag_59\n      jump\t// in\n    tag_236:\n        /* \"#utility.yul\":13074:13092   */\n      0xffffffffffffffff\n        /* \"#utility.yul\":13066:13072   */\n      dup2\n        /* \"#utility.yul\":13063:13093   */\n      gt\n        /* \"#utility.yul\":13060:13116   */\n      iszero\n      tag_237\n      jumpi\n        /* \"#utility.yul\":13096:13114   */\n      tag_238\n      tag_72\n      jump\t// in\n    tag_238:\n        /* \"#utility.yul\":13060:13116   */\n    tag_237:\n        /* \"#utility.yul\":13140:13178   */\n      tag_239\n        /* \"#utility.yul\":13172:13176   */\n      dup3\n        /* \"#utility.yul\":13166:13177   */\n      sload\n        /* \"#utility.yul\":13140:13178   */\n      tag_24\n      jump\t// in\n    tag_239:\n        /* \"#utility.yul\":13225:13292   */\n      tag_240\n        /* \"#utility.yul\":13285:13291   */\n      dup3\n        /* \"#utility.yul\":13277:13283   */\n      dup3\n        /* \"#utility.yul\":13271:13275   */\n      dup6\n        /* \"#utility.yul\":13225:13292   */\n      tag_93\n      jump\t// in\n    tag_240:\n        /* \"#utility.yul\":13319:13320   */\n      0x00\n        /* \"#utility.yul\":13343:13347   */\n      0x20\n        /* \"#utility.yul\":13330:13347   */\n      swap1\n      pop\n        /* \"#utility.yul\":13375:13377   */\n      0x1f\n        /* \"#utility.yul\":13367:13373   */\n      dup4\n        /* \"#utility.yul\":13364:13378   */\n      gt\n        /* \"#utility.yul\":13392:13393   */\n      0x01\n        /* \"#utility.yul\":13387:14005   */\n      dup2\n      eq\n      tag_242\n      jumpi\n        /* \"#utility.yul\":14049:14050   */\n      0x00\n        /* \"#utility.yul\":14066:14072   */\n      dup5\n        /* \"#utility.yul\":14063:14140   */\n      iszero\n      tag_243\n      jumpi\n        /* \"#utility.yul\":14115:14124   */\n      dup3\n        /* \"#utility.yul\":14110:14113   */\n      dup8\n        /* \"#utility.yul\":14106:14125   */\n      add\n        /* \"#utility.yul\":14100:14126   */\n      mload\n        /* \"#utility.yul\":14091:14126   */\n      swap1\n      pop\n        /* \"#utility.yul\":14063:14140   */\n    tag_243:\n        /* \"#utility.yul\":14166:14233   */\n      tag_244\n        /* \"#utility.yul\":14226:14232   */\n      dup6\n        /* \"#utility.yul\":14219:14224   */\n      dup3\n        /* \"#utility.yul\":14166:14233   */\n      tag_96\n      jump\t// in\n    tag_244:\n        /* \"#utility.yul\":14160:14164   */\n      dup7\n        /* \"#utility.yul\":14153:14234   */\n      sstore\n        /* \"#utility.yul\":14022:14244   */\n      pop\n        /* \"#utility.yul\":13357:14244   */\n      jump(tag_241)\n        /* \"#utility.yul\":13387:14005   */\n    tag_242:\n        /* \"#utility.yul\":13439:13443   */\n      0x1f\n        /* \"#utility.yul\":13435:13444   */\n      not\n        /* \"#utility.yul\":13427:13433   */\n      dup5\n        /* \"#utility.yul\":13423:13445   */\n      and\n        /* \"#utility.yul\":13473:13510   */\n      tag_245\n        /* \"#utility.yul\":13505:13509   */\n      dup7\n        /* \"#utility.yul\":13473:13510   */\n      tag_82\n      jump\t// in\n    tag_245:\n        /* \"#utility.yul\":13532:13533   */\n      0x00\n        /* \"#utility.yul\":13546:13754   */\n    tag_246:\n        /* \"#utility.yul\":13560:13567   */\n      dup3\n        /* \"#utility.yul\":13557:13558   */\n      dup2\n        /* \"#utility.yul\":13554:13568   */\n      lt\n        /* \"#utility.yul\":13546:13754   */\n      iszero\n      tag_248\n      jumpi\n        /* \"#utility.yul\":13639:13648   */\n      dup5\n        /* \"#utility.yul\":13634:13637   */\n      dup10\n        /* \"#utility.yul\":13630:13649   */\n      add\n        /* \"#utility.yul\":13624:13650   */\n      mload\n        /* \"#utility.yul\":13616:13622   */\n      dup3\n        /* \"#utility.yul\":13609:13651   */\n      sstore\n        /* \"#utility.yul\":13690:13691   */\n      0x01\n        /* \"#utility.yul\":13682:13688   */\n      dup3\n        /* \"#utility.yul\":13678:13692   */\n      add\n        /* \"#utility.yul\":13668:13692   */\n      swap2\n      pop\n        /* \"#utility.yul\":13737:13739   */\n      0x20\n        /* \"#utility.yul\":13726:13735   */\n      dup6\n        /* \"#utility.yul\":13722:13740   */\n      add\n        /* \"#utility.yul\":13709:13740   */\n      swap5\n      pop\n        /* \"#utility.yul\":13583:13587   */\n      0x20\n        /* \"#utility.yul\":13580:13581   */\n      dup2\n        /* \"#utility.yul\":13576:13588   */\n      add\n        /* \"#utility.yul\":13571:13588   */\n      swap1\n      pop\n        /* \"#utility.yul\":13546:13754   */\n      jump(tag_246)\n    tag_248:\n        /* \"#utility.yul\":13782:13788   */\n      dup7\n        /* \"#utility.yul\":13773:13780   */\n      dup4\n        /* \"#utility.yul\":13770:13789   */\n      lt\n        /* \"#utility.yul\":13767:13946   */\n      iszero\n      tag_249\n      jumpi\n        /* \"#utility.yul\":13840:13849   */\n      dup5\n        /* \"#utility.yul\":13835:13838   */\n      dup10\n        /* \"#utility.yul\":13831:13850   */\n      add\n        /* \"#utility.yul\":13825:13851   */\n      mload\n        /* \"#utility.yul\":13883:13931   */\n      tag_250\n        /* \"#utility.yul\":13925:13929   */\n      0x1f\n        /* \"#utility.yul\":13917:13923   */\n      dup10\n        /* \"#utility.yul\":13913:13930   */\n      and\n        /* \"#utility.yul\":13902:13911   */\n      dup3\n        /* \"#utility.yul\":13883:13931   */\n      tag_95\n      jump\t// in\n    tag_250:\n        /* \"#utility.yul\":13875:13881   */\n      dup4\n        /* \"#utility.yul\":13868:13932   */\n      sstore\n        /* \"#utility.yul\":13790:13946   */\n      pop\n        /* \"#utility.yul\":13767:13946   */\n    tag_249:\n        /* \"#utility.yul\":13992:13993   */\n      0x01\n        /* \"#utility.yul\":13988:13989   */\n      0x02\n        /* \"#utility.yul\":13980:13986   */\n      dup9\n        /* \"#utility.yul\":13976:13990   */\n      mul\n        /* \"#utility.yul\":13972:13994   */\n      add\n        /* \"#utility.yul\":13966:13970   */\n      dup9\n        /* \"#utility.yul\":13959:13995   */\n      sstore\n        /* \"#utility.yul\":13394:14005   */\n      pop\n      pop\n      pop\n        /* \"#utility.yul\":13357:14244   */\n    tag_241:\n      pop\n        /* \"#utility.yul\":12947:14250   */\n      pop\n      pop\n      pop\n        /* \"#utility.yul\":12855:14250   */\n      pop\n      pop\n      jump\t// out\n\n    auxdata: 0xa264697066735822122077cfda8cd9a17d3ba4250a769e4c894035966ccc3b3a2fd56159e08f9eba353f64736f6c634300081f0033\n}\n",
				"bytecode": {
					"linkReferences": {},
					"object": "6080604052348015600e575f5ffd5b50610c4f8061001c5f395ff3fe608060405234801561000f575f5ffd5b506004361061003f575f3560e01c806305a1b4a9146100435780632cf02026146100765780637c9cd2bc146100a6575b5f5ffd5b61005d60048036038101906100589190610549565b6100c2565b60405161006d9493929190610615565b60405180910390f35b610090600480360381019061008b9190610549565b6101ac565b60405161009d9190610725565b60405180910390f35b6100c060048036038101906100bb9190610871565b610319565b005b5f602052815f5260405f2081815481106100da575f80fd5b905f5260205f2090600402015f9150915050805f015f9054906101000a900473ffffffffffffffffffffffffffffffffffffffff169080600101805461011f906108e5565b80601f016020809104026020016040519081016040528092919081815260200182805461014b906108e5565b80156101965780601f1061016d57610100808354040283529160200191610196565b820191905f5260205f20905b81548152906001019060200180831161017957829003601f168201915b5050505050908060020154908060030154905084565b6101b4610470565b5f5f8473ffffffffffffffffffffffffffffffffffffffff1673ffffffffffffffffffffffffffffffffffffffff1681526020019081526020015f20828154811061020257610201610915565b5b905f5260205f2090600402016040518060800160405290815f82015f9054906101000a900473ffffffffffffffffffffffffffffffffffffffff1673ffffffffffffffffffffffffffffffffffffffff1673ffffffffffffffffffffffffffffffffffffffff16815260200160018201805461027d906108e5565b80601f01602080910402602001604051908101604052809291908181526020018280546102a9906108e5565b80156102f45780601f106102cb576101008083540402835291602001916102f4565b820191905f5260205f20905b8154815290600101906020018083116102d757829003601f168201915b5050505050815260200160028201548152602001600382015481525050905092915050565b6101188151111561035f576040517f08c379a00000000000000000000000000000000000000000000000000000000081526004016103569061098c565b60405180910390fd5b5f60405180608001604052803373ffffffffffffffffffffffffffffffffffffffff1681526020018381526020014281526020015f81525090505f5f3373ffffffffffffffffffffffffffffffffffffffff1673ffffffffffffffffffffffffffffffffffffffff1681526020019081526020015f2081908060018154018082558091505060019003905f5260205f2090600402015f909190919091505f820151815f015f6101000a81548173ffffffffffffffffffffffffffffffffffffffff021916908373ffffffffffffffffffffffffffffffffffffffff16021790555060208201518160010190816104559190610b4a565b50604082015181600201556060820151816003015550505050565b60405180608001604052805f73ffffffffffffffffffffffffffffffffffffffff168152602001606081526020015f81526020015f81525090565b5f604051905090565b5f5ffd5b5f5ffd5b5f73ffffffffffffffffffffffffffffffffffffffff82169050919050565b5f6104e5826104bc565b9050919050565b6104f5816104db565b81146104ff575f5ffd5b50565b5f81359050610510816104ec565b92915050565b5f819050919050565b61052881610516565b8114610532575f5ffd5b50565b5f813590506105438161051f565b92915050565b5f5f6040838503121561055f5761055e6104b4565b5b5f61056c85828601610502565b925050602061057d85828601610535565b9150509250929050565b610590816104db565b82525050565b5f81519050919050565b5f82825260208201905092915050565b8281835e5f83830152505050565b5f601f19601f8301169050919050565b5f6105d882610596565b6105e281856105a0565b93506105f28185602086016105b0565b6105fb816105be565b840191505092915050565b61060f81610516565b82525050565b5f6080820190506106285f830187610587565b818103602083015261063a81866105ce565b90506106496040830185610606565b6106566060830184610606565b95945050505050565b610668816104db565b82525050565b5f82825260208201905092915050565b5f61068882610596565b610692818561066e565b93506106a28185602086016105b0565b6106ab816105be565b840191505092915050565b6106bf81610516565b82525050565b5f608083015f8301516106da5f86018261065f565b50602083015184820360208601526106f2828261067e565b915050604083015161070760408601826106b6565b50606083015161071a60608601826106b6565b508091505092915050565b5f6020820190508181035f83015261073d81846106c5565b905092915050565b5f5ffd5b5f5ffd5b7f4e487b71000000000000000000000000000000000000000000000000000000005f52604160045260245ffd5b610783826105be565b810181811067ffffffffffffffff821117156107a2576107a161074d565b5b80604052505050565b5f6107b46104ab565b90506107c0828261077a565b919050565b5f67ffffffffffffffff8211156107df576107de61074d565b5b6107e8826105be565b9050602081019050919050565b828183375f83830152505050565b5f610815610810846107c5565b6107ab565b90508281526020810184848401111561083157610830610749565b5b61083c8482856107f5565b509392505050565b5f82601f83011261085857610857610745565b5b8135610868848260208601610803565b91505092915050565b5f60208284031215610886576108856104b4565b5b5f82013567ffffffffffffffff8111156108a3576108a26104b8565b5b6108af84828501610844565b91505092915050565b7f4e487b71000000000000000000000000000000000000000000000000000000005f52602260045260245ffd5b5f60028204905060018216806108fc57607f821691505b60208210810361090f5761090e6108b8565b5b50919050565b7f4e487b71000000000000000000000000000000000000000000000000000000005f52603260045260245ffd5b7f48697420746865206361700000000000000000000000000000000000000000005f82015250565b5f610976600b836105a0565b915061098182610942565b602082019050919050565b5f6020820190508181035f8301526109a38161096a565b9050919050565b5f819050815f5260205f209050919050565b5f6020601f8301049050919050565b5f82821b905092915050565b5f60088302610a067fffffffffffffffffffffffffffffffffffffffffffffffffffffffffffffffff826109cb565b610a1086836109cb565b95508019841693508086168417925050509392505050565b5f819050919050565b5f610a4b610a46610a4184610516565b610a28565b610516565b9050919050565b5f819050919050565b610a6483610a31565b610a78610a7082610a52565b8484546109d7565b825550505050565b5f5f905090565b610a8f610a80565b610a9a818484610a5b565b505050565b5b81811015610abd57610ab25f82610a87565b600181019050610aa0565b5050565b601f821115610b0257610ad3816109aa565b610adc846109bc565b81016020851015610aeb578190505b610aff610af7856109bc565b830182610a9f565b50505b505050565b5f82821c905092915050565b5f610b225f1984600802610b07565b1980831691505092915050565b5f610b3a8383610b13565b9150826002028217905092915050565b610b5382610596565b67ffffffffffffffff811115610b6c57610b6b61074d565b5b610b7682546108e5565b610b81828285610ac1565b5f60209050601f831160018114610bb2575f8415610ba0578287015190505b610baa8582610b2f565b865550610c11565b601f198416610bc0866109aa565b5f5b82811015610be757848901518255600182019150602085019450602081019050610bc2565b86831015610c045784890151610c00601f891682610b13565b8355505b6001600288020188555050505b50505050505056fea264697066735822122077cfda8cd9a17d3ba4250a769e4c894035966ccc3b3a2fd56159e08f9eba353f64736f6c634300081f0033",
					"opcodes": "PUSH1 0x80 PUSH1 0x40 MSTORE CALLVALUE DUP1 ISZERO PUSH1 0xE JUMPI PUSH0 PUSH0 REVERT JUMPDEST POP PUSH2 0xC4F DUP1 PUSH2 0x1C PUSH0 CODECOPY PUSH0 RETURN INVALID PUSH1 0x80 PUSH1 0x40 MSTORE CALLVALUE DUP1 ISZERO PUSH2 0xF JUMPI PUSH0 PUSH0 REVERT JUMPDEST POP PUSH1 0x4 CALLDATASIZE LT PUSH2 0x3F JUMPI PUSH0 CALLDATALOAD PUSH1 0xE0 SHR DUP1 PUSH4 0x5A1B4A9 EQ PUSH2 0x43 JUMPI DUP1 PUSH4 0x2CF02026 EQ PUSH2 0x76 JUMPI DUP1 PUSH4 0x7C9CD2BC EQ PUSH2 0xA6 JUMPI JUMPDEST PUSH0 PUSH0 REVERT JUMPDEST PUSH2 0x5D PUSH1 0x4 DUP1 CALLDATASIZE SUB DUP2 ADD SWAP1 PUSH2 0x58 SWAP2 SWAP1 PUSH2 0x549 JUMP JUMPDEST PUSH2 0xC2 JUMP JUMPDEST PUSH1 0x40 MLOAD PUSH2 0x6D SWAP5 SWAP4 SWAP3 SWAP2 SWAP1 PUSH2 0x615 JUMP JUMPDEST PUSH1 0x40 MLOAD DUP1 SWAP2 SUB SWAP1 RETURN JUMPDEST PUSH2 0x90 PUSH1 0x4 DUP1 CALLDATASIZE SUB DUP2 ADD SWAP1 PUSH2 0x8B SWAP2 SWAP1 PUSH2 0x549 JUMP JUMPDEST PUSH2 0x1AC JUMP JUMPDEST PUSH1 0x40 MLOAD PUSH2 0x9D SWAP2 SWAP1 PUSH2 0x725 JUMP JUMPDEST PUSH1 0x40 MLOAD DUP1 SWAP2 SUB SWAP1 RETURN JUMPDEST PUSH2 0xC0 PUSH1 0x4 DUP1 CALLDATASIZE SUB DUP2 ADD SWAP1 PUSH2 0xBB SWAP2 SWAP1 PUSH2 0x871 JUMP JUMPDEST PUSH2 0x319 JUMP JUMPDEST STOP JUMPDEST PUSH0 PUSH1 0x20 MSTORE DUP2 PUSH0 MSTORE PUSH1 0x40 PUSH0 KECCAK256 DUP2 DUP2 SLOAD DUP2 LT PUSH2 0xDA JUMPI PUSH0 DUP1 REVERT JUMPDEST SWAP1 PUSH0 MSTORE PUSH1 0x20 PUSH0 KECCAK256 SWAP1 PUSH1 0x4 MUL ADD PUSH0 SWAP2 POP SWAP2 POP POP DUP1 PUSH0 ADD PUSH0 SWAP1 SLOAD SWAP1 PUSH2 0x100 EXP SWAP1 DIV PUSH20 0xFFFFFFFFFFFFFFFFFFFFFFFFFFFFFFFFFFFFFFFF AND SWAP1 DUP1 PUSH1 0x1 ADD DUP1 SLOAD PUSH2 0x11F SWAP1 PUSH2 0x8E5 JUMP JUMPDEST DUP1 PUSH1 0x1F ADD PUSH1 0x20 DUP1 SWAP2 DIV MUL PUSH1 0x20 ADD PUSH1 0x40 MLOAD SWAP1 DUP2 ADD PUSH1 0x40 MSTORE DUP1 SWAP3 SWAP2 SWAP1 DUP2 DUP2 MSTORE PUSH1 0x20 ADD DUP3 DUP1 SLOAD PUSH2 0x14B SWAP1 PUSH2 0x8E5 JUMP JUMPDEST DUP1 ISZERO PUSH2 0x196 JUMPI DUP1 PUSH1 0x1F LT PUSH2 0x16D JUMPI PUSH2 0x100 DUP1 DUP4 SLOAD DIV MUL DUP4 MSTORE SWAP2 PUSH1 0x20 ADD SWAP2 PUSH2 0x196 JUMP JUMPDEST DUP3 ADD SWAP2 SWAP1 PUSH0 MSTORE PUSH1 0x20 PUSH0 KECCAK256 SWAP1 JUMPDEST DUP2 SLOAD DUP2 MSTORE SWAP1 PUSH1 0x1 ADD SWAP1 PUSH1 0x20 ADD DUP1 DUP4 GT PUSH2 0x179 JUMPI DUP3 SWAP1 SUB PUSH1 0x1F AND DUP3 ADD SWAP2 JUMPDEST POP POP POP POP POP SWAP1 DUP1 PUSH1 0x2 ADD SLOAD SWAP1 DUP1 PUSH1 0x3 ADD SLOAD SWAP1 POP DUP5 JUMP JUMPDEST PUSH2 0x1B4 PUSH2 0x470 JUMP JUMPDEST PUSH0 PUSH0 DUP5 PUSH20 0xFFFFFFFFFFFFFFFFFFFFFFFFFFFFFFFFFFFFFFFF AND PUSH20 0xFFFFFFFFFFFFFFFFFFFFFFFFFFFFFFFFFFFFFFFF AND DUP2 MSTORE PUSH1 0x20 ADD SWAP1 DUP2 MSTORE PUSH1 0x20 ADD PUSH0 KECCAK256 DUP3 DUP2 SLOAD DUP2 LT PUSH2 0x202 JUMPI PUSH2 0x201 PUSH2 0x915 JUMP JUMPDEST JUMPDEST SWAP1 PUSH0 MSTORE PUSH1 0x20 PUSH0 KECCAK256 SWAP1 PUSH1 0x4 MUL ADD PUSH1 0x40 MLOAD DUP1 PUSH1 0x80 ADD PUSH1 0x40 MSTORE SWAP1 DUP2 PUSH0 DUP3 ADD PUSH0 SWAP1 SLOAD SWAP1 PUSH2 0x100 EXP SWAP1 DIV PUSH20 0xFFFFFFFFFFFFFFFFFFFFFFFFFFFFFFFFFFFFFFFF AND PUSH20 0xFFFFFFFFFFFFFFFFFFFFFFFFFFFFFFFFFFFFFFFF AND PUSH20 0xFFFFFFFFFFFFFFFFFFFFFFFFFFFFFFFFFFFFFFFF AND DUP2 MSTORE PUSH1 0x20 ADD PUSH1 0x1 DUP3 ADD DUP1 SLOAD PUSH2 0x27D SWAP1 PUSH2 0x8E5 JUMP JUMPDEST DUP1 PUSH1 0x1F ADD PUSH1 0x20 DUP1 SWAP2 DIV MUL PUSH1 0x20 ADD PUSH1 0x40 MLOAD SWAP1 DUP2 ADD PUSH1 0x40 MSTORE DUP1 SWAP3 SWAP2 SWAP1 DUP2 DUP2 MSTORE PUSH1 0x20 ADD DUP3 DUP1 SLOAD PUSH2 0x2A9 SWAP1 PUSH2 0x8E5 JUMP JUMPDEST DUP1 ISZERO PUSH2 0x2F4 JUMPI DUP1 PUSH1 0x1F LT PUSH2 0x2CB JUMPI PUSH2 0x100 DUP1 DUP4 SLOAD DIV MUL DUP4 MSTORE SWAP2 PUSH1 0x20 ADD SWAP2 PUSH2 0x2F4 JUMP JUMPDEST DUP3 ADD SWAP2 SWAP1 PUSH0 MSTORE PUSH1 0x20 PUSH0 KECCAK256 SWAP1 JUMPDEST DUP2 SLOAD DUP2 MSTORE SWAP1 PUSH1 0x1 ADD SWAP1 PUSH1 0x20 ADD DUP1 DUP4 GT PUSH2 0x2D7 JUMPI DUP3 SWAP1 SUB PUSH1 0x1F AND DUP3 ADD SWAP2 JUMPDEST POP POP POP POP POP DUP2 MSTORE PUSH1 0x20 ADD PUSH1 0x2 DUP3 ADD SLOAD DUP2 MSTORE PUSH1 0x20 ADD PUSH1 0x3 DUP3 ADD SLOAD DUP2 MSTORE POP POP SWAP1 POP SWAP3 SWAP2 POP POP JUMP JUMPDEST PUSH2 0x118 DUP2 MLOAD GT ISZERO PUSH2 0x35F JUMPI PUSH1 0x40 MLOAD PUSH32 0x8C379A000000000000000000000000000000000000000000000000000000000 DUP2 MSTORE PUSH1 0x4 ADD PUSH2 0x356 SWAP1 PUSH2 0x98C JUMP JUMPDEST PUSH1 0x40 MLOAD DUP1 SWAP2 SUB SWAP1 REVERT JUMPDEST PUSH0 PUSH1 0x40 MLOAD DUP1 PUSH1 0x80 ADD PUSH1 0x40 MSTORE DUP1 CALLER PUSH20 0xFFFFFFFFFFFFFFFFFFFFFFFFFFFFFFFFFFFFFFFF AND DUP2 MSTORE PUSH1 0x20 ADD DUP4 DUP2 MSTORE PUSH1 0x20 ADD TIMESTAMP DUP2 MSTORE PUSH1 0x20 ADD PUSH0 DUP2 MSTORE POP SWAP1 POP PUSH0 PUSH0 CALLER PUSH20 0xFFFFFFFFFFFFFFFFFFFFFFFFFFFFFFFFFFFFFFFF AND PUSH20 0xFFFFFFFFFFFFFFFFFFFFFFFFFFFFFFFFFFFFFFFF AND DUP2 MSTORE PUSH1 0x20 ADD SWAP1 DUP2 MSTORE PUSH1 0x20 ADD PUSH0 KECCAK256 DUP2 SWAP1 DUP1 PUSH1 0x1 DUP2 SLOAD ADD DUP1 DUP3 SSTORE DUP1 SWAP2 POP POP PUSH1 0x1 SWAP1 SUB SWAP1 PUSH0 MSTORE PUSH1 0x20 PUSH0 KECCAK256 SWAP1 PUSH1 0x4 MUL ADD PUSH0 SWAP1 SWAP2 SWAP1 SWAP2 SWAP1 SWAP2 POP PUSH0 DUP3 ADD MLOAD DUP2 PUSH0 ADD PUSH0 PUSH2 0x100 EXP DUP2 SLOAD DUP2 PUSH20 0xFFFFFFFFFFFFFFFFFFFFFFFFFFFFFFFFFFFFFFFF MUL NOT AND SWAP1 DUP4 PUSH20 0xFFFFFFFFFFFFFFFFFFFFFFFFFFFFFFFFFFFFFFFF AND MUL OR SWAP1 SSTORE POP PUSH1 0x20 DUP3 ADD MLOAD DUP2 PUSH1 0x1 ADD SWAP1 DUP2 PUSH2 0x455 SWAP2 SWAP1 PUSH2 0xB4A JUMP JUMPDEST POP PUSH1 0x40 DUP3 ADD MLOAD DUP2 PUSH1 0x2 ADD SSTORE PUSH1 0x60 DUP3 ADD MLOAD DUP2 PUSH1 0x3 ADD SSTORE POP POP POP POP JUMP JUMPDEST PUSH1 0x40 MLOAD DUP1 PUSH1 0x80 ADD PUSH1 0x40 MSTORE DUP1 PUSH0 PUSH20 0xFFFFFFFFFFFFFFFFFFFFFFFFFFFFFFFFFFFFFFFF AND DUP2 MSTORE PUSH1 0x20 ADD PUSH1 0x60 DUP2 MSTORE PUSH1 0x20 ADD PUSH0 DUP2 MSTORE PUSH1 0x20 ADD PUSH0 DUP2 MSTORE POP SWAP1 JUMP JUMPDEST PUSH0 PUSH1 0x40 MLOAD SWAP1 POP SWAP1 JUMP JUMPDEST PUSH0 PUSH0 REVERT JUMPDEST PUSH0 PUSH0 REVERT JUMPDEST PUSH0 PUSH20 0xFFFFFFFFFFFFFFFFFFFFFFFFFFFFFFFFFFFFFFFF DUP3 AND SWAP1 POP SWAP2 SWAP1 POP JUMP JUMPDEST PUSH0 PUSH2 0x4E5 DUP3 PUSH2 0x4BC JUMP JUMPDEST SWAP1 POP SWAP2 SWAP1 POP JUMP JUMPDEST PUSH2 0x4F5 DUP2 PUSH2 0x4DB JUMP JUMPDEST DUP2 EQ PUSH2 0x4FF JUMPI PUSH0 PUSH0 REVERT JUMPDEST POP JUMP JUMPDEST PUSH0 DUP2 CALLDATALOAD SWAP1 POP PUSH2 0x510 DUP2 PUSH2 0x4EC JUMP JUMPDEST SWAP3 SWAP2 POP POP JUMP JUMPDEST PUSH0 DUP2 SWAP1 POP SWAP2 SWAP1 POP JUMP JUMPDEST PUSH2 0x528 DUP2 PUSH2 0x516 JUMP JUMPDEST DUP2 EQ PUSH2 0x532 JUMPI PUSH0 PUSH0 REVERT JUMPDEST POP JUMP JUMPDEST PUSH0 DUP2 CALLDATALOAD SWAP1 POP PUSH2 0x543 DUP2 PUSH2 0x51F JUMP JUMPDEST SWAP3 SWAP2 POP POP JUMP JUMPDEST PUSH0 PUSH0 PUSH1 0x40 DUP4 DUP6 SUB SLT ISZERO PUSH2 0x55F JUMPI PUSH2 0x55E PUSH2 0x4B4 JUMP JUMPDEST JUMPDEST PUSH0 PUSH2 0x56C DUP6 DUP3 DUP7 ADD PUSH2 0x502 JUMP JUMPDEST SWAP3 POP POP PUSH1 0x20 PUSH2 0x57D DUP6 DUP3 DUP7 ADD PUSH2 0x535 JUMP JUMPDEST SWAP2 POP POP SWAP3 POP SWAP3 SWAP1 POP JUMP JUMPDEST PUSH2 0x590 DUP2 PUSH2 0x4DB JUMP JUMPDEST DUP3 MSTORE POP POP JUMP JUMPDEST PUSH0 DUP2 MLOAD SWAP1 POP SWAP2 SWAP1 POP JUMP JUMPDEST PUSH0 DUP3 DUP3 MSTORE PUSH1 0x20 DUP3 ADD SWAP1 POP SWAP3 SWAP2 POP POP JUMP JUMPDEST DUP3 DUP2 DUP4 MCOPY PUSH0 DUP4 DUP4 ADD MSTORE POP POP POP JUMP JUMPDEST PUSH0 PUSH1 0x1F NOT PUSH1 0x1F DUP4 ADD AND SWAP1 POP SWAP2 SWAP1 POP JUMP JUMPDEST PUSH0 PUSH2 0x5D8 DUP3 PUSH2 0x596 JUMP JUMPDEST PUSH2 0x5E2 DUP2 DUP6 PUSH2 0x5A0 JUMP JUMPDEST SWAP4 POP PUSH2 0x5F2 DUP2 DUP6 PUSH1 0x20 DUP7 ADD PUSH2 0x5B0 JUMP JUMPDEST PUSH2 0x5FB DUP2 PUSH2 0x5BE JUMP JUMPDEST DUP5 ADD SWAP2 POP POP SWAP3 SWAP2 POP POP JUMP JUMPDEST PUSH2 0x60F DUP2 PUSH2 0x516 JUMP JUMPDEST DUP3 MSTORE POP POP JUMP JUMPDEST PUSH0 PUSH1 0x80 DUP3 ADD SWAP1 POP PUSH2 0x628 PUSH0 DUP4 ADD DUP8 PUSH2 0x587 JUMP JUMPDEST DUP2 DUP2 SUB PUSH1 0x20 DUP4 ADD MSTORE PUSH2 0x63A DUP2 DUP7 PUSH2 0x5CE JUMP JUMPDEST SWAP1 POP PUSH2 0x649 PUSH1 0x40 DUP4 ADD DUP6 PUSH2 0x606 JUMP JUMPDEST PUSH2 0x656 PUSH1 0x60 DUP4 ADD DUP5 PUSH2 0x606 JUMP JUMPDEST SWAP6 SWAP5 POP POP POP POP POP JUMP JUMPDEST PUSH2 0x668 DUP2 PUSH2 0x4DB JUMP JUMPDEST DUP3 MSTORE POP POP JUMP JUMPDEST PUSH0 DUP3 DUP3 MSTORE PUSH1 0x20 DUP3 ADD SWAP1 POP SWAP3 SWAP2 POP POP JUMP JUMPDEST PUSH0 PUSH2 0x688 DUP3 PUSH2 0x596 JUMP JUMPDEST PUSH2 0x692 DUP2 DUP6 PUSH2 0x66E JUMP JUMPDEST SWAP4 POP PUSH2 0x6A2 DUP2 DUP6 PUSH1 0x20 DUP7 ADD PUSH2 0x5B0 JUMP JUMPDEST PUSH2 0x6AB DUP2 PUSH2 0x5BE JUMP JUMPDEST DUP5 ADD SWAP2 POP POP SWAP3 SWAP2 POP POP JUMP JUMPDEST PUSH2 0x6BF DUP2 PUSH2 0x516 JUMP JUMPDEST DUP3 MSTORE POP POP JUMP JUMPDEST PUSH0 PUSH1 0x80 DUP4 ADD PUSH0 DUP4 ADD MLOAD PUSH2 0x6DA PUSH0 DUP7 ADD DUP3 PUSH2 0x65F JUMP JUMPDEST POP PUSH1 0x20 DUP4 ADD MLOAD DUP5 DUP3 SUB PUSH1 0x20 DUP7 ADD MSTORE PUSH2 0x6F2 DUP3 DUP3 PUSH2 0x67E JUMP JUMPDEST SWAP2 POP POP PUSH1 0x40 DUP4 ADD MLOAD PUSH2 0x707 PUSH1 0x40 DUP7 ADD DUP3 PUSH2 0x6B6 JUMP JUMPDEST POP PUSH1 0x60 DUP4 ADD MLOAD PUSH2 0x71A PUSH1 0x60 DUP7 ADD DUP3 PUSH2 0x6B6 JUMP JUMPDEST POP DUP1 SWAP2 POP POP SWAP3 SWAP2 POP POP JUMP JUMPDEST PUSH0 PUSH1 0x20 DUP3 ADD SWAP1 POP DUP2 DUP2 SUB PUSH0 DUP4 ADD MSTORE PUSH2 0x73D DUP2 DUP5 PUSH2 0x6C5 JUMP JUMPDEST SWAP1 POP SWAP3 SWAP2 POP POP JUMP JUMPDEST PUSH0 PUSH0 REVERT JUMPDEST PUSH0 PUSH0 REVERT JUMPDEST PUSH32 0x4E487B7100000000000000000000000000000000000000000000000000000000 PUSH0 MSTORE PUSH1 0x41 PUSH1 0x4 MSTORE PUSH1 0x24 PUSH0 REVERT JUMPDEST PUSH2 0x783 DUP3 PUSH2 0x5BE JUMP JUMPDEST DUP2 ADD DUP2 DUP2 LT PUSH8 0xFFFFFFFFFFFFFFFF DUP3 GT OR ISZERO PUSH2 0x7A2 JUMPI PUSH2 0x7A1 PUSH2 0x74D JUMP JUMPDEST JUMPDEST DUP1 PUSH1 0x40 MSTORE POP POP POP JUMP JUMPDEST PUSH0 PUSH2 0x7B4 PUSH2 0x4AB JUMP JUMPDEST SWAP1 POP PUSH2 0x7C0 DUP3 DUP3 PUSH2 0x77A JUMP JUMPDEST SWAP2 SWAP1 POP JUMP JUMPDEST PUSH0 PUSH8 0xFFFFFFFFFFFFFFFF DUP3 GT ISZERO PUSH2 0x7DF JUMPI PUSH2 0x7DE PUSH2 0x74D JUMP JUMPDEST JUMPDEST PUSH2 0x7E8 DUP3 PUSH2 0x5BE JUMP JUMPDEST SWAP1 POP PUSH1 0x20 DUP2 ADD SWAP1 POP SWAP2 SWAP1 POP JUMP JUMPDEST DUP3 DUP2 DUP4 CALLDATACOPY PUSH0 DUP4 DUP4 ADD MSTORE POP POP POP JUMP JUMPDEST PUSH0 PUSH2 0x815 PUSH2 0x810 DUP5 PUSH2 0x7C5 JUMP JUMPDEST PUSH2 0x7AB JUMP JUMPDEST SWAP1 POP DUP3 DUP2 MSTORE PUSH1 0x20 DUP2 ADD DUP5 DUP5 DUP5 ADD GT ISZERO PUSH2 0x831 JUMPI PUSH2 0x830 PUSH2 0x749 JUMP JUMPDEST JUMPDEST PUSH2 0x83C DUP5 DUP3 DUP6 PUSH2 0x7F5 JUMP JUMPDEST POP SWAP4 SWAP3 POP POP POP JUMP JUMPDEST PUSH0 DUP3 PUSH1 0x1F DUP4 ADD SLT PUSH2 0x858 JUMPI PUSH2 0x857 PUSH2 0x745 JUMP JUMPDEST JUMPDEST DUP2 CALLDATALOAD PUSH2 0x868 DUP5 DUP3 PUSH1 0x20 DUP7 ADD PUSH2 0x803 JUMP JUMPDEST SWAP2 POP POP SWAP3 SWAP2 POP POP JUMP JUMPDEST PUSH0 PUSH1 0x20 DUP3 DUP5 SUB SLT ISZERO PUSH2 0x886 JUMPI PUSH2 0x885 PUSH2 0x4B4 JUMP JUMPDEST JUMPDEST PUSH0 DUP3 ADD CALLDATALOAD PUSH8 0xFFFFFFFFFFFFFFFF DUP2 GT ISZERO PUSH2 0x8A3 JUMPI PUSH2 0x8A2 PUSH2 0x4B8 JUMP JUMPDEST JUMPDEST PUSH2 0x8AF DUP5 DUP3 DUP6 ADD PUSH2 0x844 JUMP JUMPDEST SWAP2 POP POP SWAP3 SWAP2 POP POP JUMP JUMPDEST PUSH32 0x4E487B7100000000000000000000000000000000000000000000000000000000 PUSH0 MSTORE PUSH1 0x22 PUSH1 0x4 MSTORE PUSH1 0x24 PUSH0 REVERT JUMPDEST PUSH0 PUSH1 0x2 DUP3 DIV SWAP1 POP PUSH1 0x1 DUP3 AND DUP1 PUSH2 0x8FC JUMPI PUSH1 0x7F DUP3 AND SWAP2 POP JUMPDEST PUSH1 0x20 DUP3 LT DUP2 SUB PUSH2 0x90F JUMPI PUSH2 0x90E PUSH2 0x8B8 JUMP JUMPDEST JUMPDEST POP SWAP2 SWAP1 POP JUMP JUMPDEST PUSH32 0x4E487B7100000000000000000000000000000000000000000000000000000000 PUSH0 MSTORE PUSH1 0x32 PUSH1 0x4 MSTORE PUSH1 0x24 PUSH0 REVERT JUMPDEST PUSH32 0x4869742074686520636170000000000000000000000000000000000000000000 PUSH0 DUP3 ADD MSTORE POP JUMP JUMPDEST PUSH0 PUSH2 0x976 PUSH1 0xB DUP4 PUSH2 0x5A0 JUMP JUMPDEST SWAP2 POP PUSH2 0x981 DUP3 PUSH2 0x942 JUMP JUMPDEST PUSH1 0x20 DUP3 ADD SWAP1 POP SWAP2 SWAP1 POP JUMP JUMPDEST PUSH0 PUSH1 0x20 DUP3 ADD SWAP1 POP DUP2 DUP2 SUB PUSH0 DUP4 ADD MSTORE PUSH2 0x9A3 DUP2 PUSH2 0x96A JUMP JUMPDEST SWAP1 POP SWAP2 SWAP1 POP JUMP JUMPDEST PUSH0 DUP2 SWAP1 POP DUP2 PUSH0 MSTORE PUSH1 0x20 PUSH0 KECCAK256 SWAP1 POP SWAP2 SWAP1 POP JUMP JUMPDEST PUSH0 PUSH1 0x20 PUSH1 0x1F DUP4 ADD DIV SWAP1 POP SWAP2 SWAP1 POP JUMP JUMPDEST PUSH0 DUP3 DUP3 SHL SWAP1 POP SWAP3 SWAP2 POP POP JUMP JUMPDEST PUSH0 PUSH1 0x8 DUP4 MUL PUSH2 0xA06 PUSH32 0xFFFFFFFFFFFFFFFFFFFFFFFFFFFFFFFFFFFFFFFFFFFFFFFFFFFFFFFFFFFFFFFF DUP3 PUSH2 0x9CB JUMP JUMPDEST PUSH2 0xA10 DUP7 DUP4 PUSH2 0x9CB JUMP JUMPDEST SWAP6 POP DUP1 NOT DUP5 AND SWAP4 POP DUP1 DUP7 AND DUP5 OR SWAP3 POP POP POP SWAP4 SWAP3 POP POP POP JUMP JUMPDEST PUSH0 DUP2 SWAP1 POP SWAP2 SWAP1 POP JUMP JUMPDEST PUSH0 PUSH2 0xA4B PUSH2 0xA46 PUSH2 0xA41 DUP5 PUSH2 0x516 JUMP JUMPDEST PUSH2 0xA28 JUMP JUMPDEST PUSH2 0x516 JUMP JUMPDEST SWAP1 POP SWAP2 SWAP1 POP JUMP JUMPDEST PUSH0 DUP2 SWAP1 POP SWAP2 SWAP1 POP JUMP JUMPDEST PUSH2 0xA64 DUP4 PUSH2 0xA31 JUMP JUMPDEST PUSH2 0xA78 PUSH2 0xA70 DUP3 PUSH2 0xA52 JUMP JUMPDEST DUP5 DUP5 SLOAD PUSH2 0x9D7 JUMP JUMPDEST DUP3 SSTORE POP POP POP POP JUMP JUMPDEST PUSH0 PUSH0 SWAP1 POP SWAP1 JUMP JUMPDEST PUSH2 0xA8F PUSH2 0xA80 JUMP JUMPDEST PUSH2 0xA9A DUP2 DUP5 DUP5 PUSH2 0xA5B JUMP JUMPDEST POP POP POP JUMP JUMPDEST JUMPDEST DUP2 DUP2 LT ISZERO PUSH2 0xABD JUMPI PUSH2 0xAB2 PUSH0 DUP3 PUSH2 0xA87 JUMP JUMPDEST PUSH1 0x1 DUP2 ADD SWAP1 POP PUSH2 0xAA0 JUMP JUMPDEST POP POP JUMP JUMPDEST PUSH1 0x1F DUP3 GT ISZERO PUSH2 0xB02 JUMPI PUSH2 0xAD3 DUP2 PUSH2 0x9AA JUMP JUMPDEST PUSH2 0xADC DUP5 PUSH2 0x9BC JUMP JUMPDEST DUP2 ADD PUSH1 0x20 DUP6 LT ISZERO PUSH2 0xAEB JUMPI DUP2 SWAP1 POP JUMPDEST PUSH2 0xAFF PUSH2 0xAF7 DUP6 PUSH2 0x9BC JUMP JUMPDEST DUP4 ADD DUP3 PUSH2 0xA9F JUMP JUMPDEST POP POP JUMPDEST POP POP POP JUMP JUMPDEST PUSH0 DUP3 DUP3 SHR SWAP1 POP SWAP3 SWAP2 POP POP JUMP JUMPDEST PUSH0 PUSH2 0xB22 PUSH0 NOT DUP5 PUSH1 0x8 MUL PUSH2 0xB07 JUMP JUMPDEST NOT DUP1 DUP4 AND SWAP2 POP POP SWAP3 SWAP2 POP POP JUMP JUMPDEST PUSH0 PUSH2 0xB3A DUP4 DUP4 PUSH2 0xB13 JUMP JUMPDEST SWAP2 POP DUP3 PUSH1 0x2 MUL DUP3 OR SWAP1 POP SWAP3 SWAP2 POP POP JUMP JUMPDEST PUSH2 0xB53 DUP3 PUSH2 0x596 JUMP JUMPDEST PUSH8 0xFFFFFFFFFFFFFFFF DUP2 GT ISZERO PUSH2 0xB6C JUMPI PUSH2 0xB6B PUSH2 0x74D JUMP JUMPDEST JUMPDEST PUSH2 0xB76 DUP3 SLOAD PUSH2 0x8E5 JUMP JUMPDEST PUSH2 0xB81 DUP3 DUP3 DUP6 PUSH2 0xAC1 JUMP JUMPDEST PUSH0 PUSH1 0x20 SWAP1 POP PUSH1 0x1F DUP4 GT PUSH1 0x1 DUP2 EQ PUSH2 0xBB2 JUMPI PUSH0 DUP5 ISZERO PUSH2 0xBA0 JUMPI DUP3 DUP8 ADD MLOAD SWAP1 POP JUMPDEST PUSH2 0xBAA DUP6 DUP3 PUSH2 0xB2F JUMP JUMPDEST DUP7 SSTORE POP PUSH2 0xC11 JUMP JUMPDEST PUSH1 0x1F NOT DUP5 AND PUSH2 0xBC0 DUP7 PUSH2 0x9AA JUMP JUMPDEST PUSH0 JUMPDEST DUP3 DUP2 LT ISZERO PUSH2 0xBE7 JUMPI DUP5 DUP10 ADD MLOAD DUP3 SSTORE PUSH1 0x1 DUP3 ADD SWAP2 POP PUSH1 0x20 DUP6 ADD SWAP5 POP PUSH1 0x20 DUP2 ADD SWAP1 POP PUSH2 0xBC2 JUMP JUMPDEST DUP7 DUP4 LT ISZERO PUSH2 0xC04 JUMPI DUP5 DUP10 ADD MLOAD PUSH2 0xC00 PUSH1 0x1F DUP10 AND DUP3 PUSH2 0xB13 JUMP JUMPDEST DUP4 SSTORE POP JUMPDEST PUSH1 0x1 PUSH1 0x2 DUP9 MUL ADD DUP9 SSTORE POP POP POP JUMPDEST POP POP POP POP POP POP JUMP INVALID LOG2 PUSH5 0x6970667358 0x22 SLT KECCAK256 PUSH24 0xCFDA8CD9A17D3BA4250A769E4C894035966CCC3B3A2FD561 MSIZE RJUMP 0x8F9E 0xBA CALLDATALOAD EXTCODEHASH PUSH5 0x736F6C6343 STOP ADDMOD 0x1F STOP CALLER "
				},
				"gasEstimates": {
					"creation": {
						"codeDepositCost": "630200",
						"executionCost": "662",
						"totalCost": "630862"
					},
					"external": {
						"createTweet(string)": "infinite",
						"getTweets(address,uint256)": "infinite",
						"tweets(address,uint256)": "infinite"
					}
				},
				"methodIdentifiers": {
					"createTweet(string)": "7c9cd2bc",
					"getTweets(address,uint256)": "2cf02026",
					"tweets(address,uint256)": "05a1b4a9"
				}
			},
			"storageLayout": {
				"storage": [
					{
						"astId": 16,
						"contract": "contracts/twitter.sol:Twitter",
						"label": "tweets",
						"offset": 0,
						"slot": "0",
						"type": "t_mapping(t_address,t_array(t_struct(Tweet)10_storage)dyn_storage)"
					}
				],
				"types": {
					"t_address": {
						"encoding": "inplace",
						"label": "address",
						"numberOfBytes": "20"
					},
					"t_array(t_struct(Tweet)10_storage)dyn_storage": {
						"base": "t_struct(Tweet)10_storage",
						"encoding": "dynamic_array",
						"label": "struct Twitter.Tweet[]",
						"numberOfBytes": "32"
					},
					"t_mapping(t_address,t_array(t_struct(Tweet)10_storage)dyn_storage)": {
						"encoding": "mapping",
						"key": "t_address",
						"label": "mapping(address => struct Twitter.Tweet[])",
						"numberOfBytes": "32",
						"value": "t_array(t_struct(Tweet)10_storage)dyn_storage"
					},
					"t_string_storage": {
						"encoding": "bytes",
						"label": "string",
						"numberOfBytes": "32"
					},
					"t_struct(Tweet)10_storage": {
						"encoding": "inplace",
						"label": "struct Twitter.Tweet",
						"members": [
							{
								"astId": 3,
								"contract": "contracts/twitter.sol:Twitter",
								"label": "author",
								"offset": 0,
								"slot": "0",
								"type": "t_address"
							},
							{
								"astId": 5,
								"contract": "contracts/twitter.sol:Twitter",
								"label": "message",
								"offset": 0,
								"slot": "1",
								"type": "t_string_storage"
							},
							{
								"astId": 7,
								"contract": "contracts/twitter.sol:Twitter",
								"label": "timestamp",
								"offset": 0,
								"slot": "2",
								"type": "t_uint256"
							},
							{
								"astId": 9,
								"contract": "contracts/twitter.sol:Twitter",
								"label": "likes",
								"offset": 0,
								"slot": "3",
								"type": "t_uint256"
							}
						],
						"numberOfBytes": "128"
					},
					"t_uint256": {
						"encoding": "inplace",
						"label": "uint256",
						"numberOfBytes": "32"
					}
				}
			},
			"userdoc": {
				"kind": "user",
				"methods": {},
				"version": 1
			}
		}
	}
}